:100000000C9434000C9451000C9451000C94510049
:100010000C9451000C9451000C9451000C9451001C
:100020000C9451000C9451000C9451000C9451000C
:100030000C9451000C94E0010C9451000C9451006C
:100040000C9451000C9451000C9451000C945100EC
:100050000C9451000C9451000C9451000C945100DC
:100060000C9451000C94510011241FBECFEFD8E026
:10007000DEBFCDBF11E0A0E0B1E0E8E8F5E002C0EE
:1000800005900D92A032B107D9F711E0A0E2B1E0DE
:1000900001C01D92A732B107E1F70E9425020C941E
:1000A000C2020C94000087E090E09093C50080931A
:1000B000C400E1ECF0E08081886080838081806111
:1000C0008083808180688083E2ECF0E080818460BE
:1000D0008083579A0895982F8091C00085FFFCCFA8
:1000E0009093C60008958091C00085FFFCCF0895CD
:1000F0008091C00085FFFCCF80E28093C600089508
:100100008091C00085FFFCCF8CE28093C6000895EB
:100110008091C00085FFFCCF8EE28093C6000895D9
:100120008091C00085FFFCCF8AE08093C60080915B
:10013000C00085FFFCCF8DE08093C6000895982F06
:1001400006C08091C00085FFFCCF1092C600915080
:10015000C0F70895FC0107C08091C00085FFFCCF67
:1001600031969093C60090819923B1F708956F92CC
:100170007F928F929F92AF92BF92CF92DF92EF9237
:10018000FF920F931F93CF93DF935B016C01E12CE0
:100190008AECF82E8AE9082F8BE3182FC0E0D0E014
:1001A0008091C00085FFFCCFB501C601A801970171
:1001B0000E948C02205D2093C600C801B7012AE08E
:1001C00030E040E050E00E948C02922E832E742E8C
:1001D000652E2196CA30D10589F0B501C601A80166
:1001E00097010E948C025B016C01292D382D472D4F
:1001F000562DC901DA017C018D01D2CFDF91CF915B
:100200001F910F91FF90EF90DF90CF90BF90AF9034
:100210009F908F907F906F900895FF920F931F9300
:10022000182F492F24E630E0E0E0F0E08091C00094
:1002300085FFFCCF812F942FB9010E947902605D68
:100240006093C600C9016AE070E00E947902062F3F
:10025000F72E3196E330F10559F0812F942FB90133
:100260000E947902182F492F802F9F2D9C01DECFED
:100270001F910F91FF9008950E9490000E9490009E
:1002800080E091E00E94AA000E9490000895982FBB
:1002900087B18F6087B9913069F092301CF499234F
:1002A00061F00895923021F0933049F487E003C063
:1002B0008BE001C08DE088B908958EE088B908957B
:1002C0000E9447013C983D985298539854985598ED
:1002D0005698579886B1282F30E094E036952795A8
:1002E0009A95E1F721703070359922604A9924601F
:1002F0004B9928604C9920614D9920624E99206459
:100300004F992068C9010895EF92FF920F931F93B0
:1003100083E00E9460017C010027F7FC0095102F0C
:10032000102F0F2DFE2CEE2482E00E946001AA27E0
:1003300097FDA095BA2FE80EF91E0A1F1B1F102F5C
:100340000F2DFE2CEE2481E00E946001AA2797FD6C
:10035000A095BA2FE80EF91E0A1F1B1F102F0F2D94
:10036000FE2CEE2480E00E9460019C01442737FDB2
:100370004095542F2E0D3F1D401F511FB901CA013A
:100380001F910F91FF90EF9008958AE090E0909375
:10039000260180932501E1E8F0E08081806180837F
:1003A000808185608083EFE6F0E0808181608083DA
:1003B00088E490E090938700809386007894089575
:1003C0001F920F920FB60F9211242F933F938F938A
:1003D0009F93219A2998299A809123019091240131
:1003E0002091250130912601280F391F30932401D7
:1003F000209323018091230190912401885E9340F2
:10040000C4F0109224011092230180912101909157
:100410002201019690932201809321018091210174
:1004200090912201885E934024F010922201109254
:10043000210181E0809320019F918F913F912F9125
:100440000F900FBE0F901F9018957F928F929F92E2
:10045000AF92BF92CF92DF92EF92FF920F931F93D2
:100460000E9453000E94C5010E943C017EE2772E4B
:100470006CE2962E5AE0852E809120018823E1F3CC
:100480000E9484017B018C018091210190912201C5
:100490000E940D018091C00085FFFCCF7092C600C4
:1004A00080912301909124010E940D018091C00050
:1004B00085FFFCCF9092C600C801B7010E94B7002B
:1004C0008091C00085FFFCCF9092C600C801B701A3
:1004D0006A197B098C099D090E94B7008091C000B0
:1004E00085FFFCCF8092C600109220015701680161
:1004F000C3CF97FB092E07260AD077FD04D02ED054
:1005000006D000201AF4709561957F4F0895F6F794
:10051000909581959F4F0895A1E21A2EAA1BBB1BAF
:10052000FD010DC0AA1FBB1FEE1FFF1FA217B307BF
:10053000E407F50720F0A21BB30BE40BF50B661FD5
:10054000771F881F991F1A9469F760957095809599
:1005500090959B01AC01BD01CF010895AA1BBB1B67
:1005600051E107C0AA1FBB1FA617B70710F0A61BB3
:10057000B70B881F991F5A95A9F780959095BC01D4
:08058000CD010895F894FFCFAE
:1005880055534220436F756E746572202D2077771E
:10059800772E535748617264656E2E636F6D000045
:00000001FF
