:100000000C9434000C943E000C943E000C943E0082
:100010000C943E000C943E000C943E000C943E0068
:100020000C943E000C943E000C943E000C943E0058
:100030000C943E000C943E000C943E000C943E0048
:100040000C943E000C943E000C943E000C943E0038
:100050000C943E000C943E000C943E000C943E0028
:100060000C943E000C943E0011241FBECFEFD8E04C
:10007000DEBFCDBF0E9435010C9480010C940000BE
:1000800087E092E09093C5008093C400E1ECF0E03B
:1000900080818860808380818061808380818068A6
:1000A0008083E2ECF0E0808184608083579A089539
:1000B000982F8091C00085FFFCCF9093C6000895D3
:1000C0008091C00085FFFCCF08958091C00085FF1E
:1000D000FCCF80E28093C60008958091C00085FF28
:1000E000FCCF8CE28093C60008958091C00085FF0C
:1000F000FCCF8AE08093C6008091C00085FFFCCFD2
:100100008DE08093C6000895982F06C08091C000AE
:1001100085FFFCCF1092C6009150C0F70895FC01F6
:1001200007C08091C00085FFFCCF31969093C60038
:1001300090819923B1F70895FF920F931F93182F81
:10014000492F20E137E2E0E0F0E08091C00085FF38
:10015000FCCF812F942FB9010E944A01605D60930A
:10016000C600C9016AE070E00E944A01062FF72E1E
:100170003196E530F10559F0812F942FB9010E9495
:100180004A01182F492F802F9F2D9C01DECF1F91F0
:100190000F91FF9008956F927F928F929F92AF92EE
:1001A000BF92CF92DF92EF92FF920F931F93CF9364
:1001B000DF935B016C01E12C81EEF82E85EF082FB7
:1001C00085E0182FC0E0D0E08091C00085FFFCCF13
:1001D000B501C601A80197010E945E01205D209330
:1001E000C600C801B7012AE030E040E050E00E94BC
:1001F0005E01922E832E742E652E2196C930D10574
:1002000089F0B501C601A80197010E945E015B015A
:100210006C01292D382D472D562DC901DA017C019D
:100220008D01D2CFDF91CF911F910F91FF90EF9071
:10023000DF90CF90BF90AF909F908F907F906F9006
:100240000895219A2AEF30E0299A80ED97E0F9018C
:100250003197F1F70197D9F7299880E49FE1F901E7
:100260003197F1F70197D9F7EFCFEF92FF920F9304
:100270001F930E944000EE24FF2487010E94750016
:10028000B701C8010894E11CF11C011D111D0E9459
:10029000CB00F4CFAA1BBB1B51E107C0AA1FBB1F99
:1002A000A617B70710F0A61BB70B881F991F5A9502
:1002B000A9F780959095BC01CD010895A1E21A2E71
:1002C000AA1BBB1BFD010DC0AA1FBB1FEE1FFF1FFA
:1002D000A217B307E407F50720F0A21BB30BE40B4A
:1002E000F50B661F771F881F991F1A9469F7609591
:1002F0007095809590959B01AC01BD01CF0108954B
:04030000F894FFCF9F
:00000001FF
