:100000000C9434000C9449000C9449000C94490061
:100010000C9449000C9449000C9449000C9449003C
:100020000C9449000C9449000C9449000C9449002C
:100030000C9449000C9449000C9449000C9449001C
:100040000C9449000C9449000C9449000C9449000C
:100050000C9449000C9449000C9449000C944900FC
:100060000C9449000C94490011241FBECFEFD8E036
:10007000DEBFCDBF11E0A0E0B1E0EAE7F4E002C0EE
:1000800005900D92AC31B107D9F70E94F0010C94A4
:100090003B020C94000087E092E09093C5008093AF
:1000A000C400E1ECF0E08081886080838081806121
:1000B0008083808180688083E2ECF0E080818460CE
:1000C0008083579A0895982F8091C00085FFFCCFB8
:1000D0009093C60008958091C00085FFFCCF0895DD
:1000E0008091C00085FFFCCF80E28093C600089518
:1000F0008091C00085FFFCCF8CE28093C6000895FC
:100100008091C00085FFFCCF8AE08093C60080917B
:10011000C00085FFFCCF8DE08093C6000895982F26
:1001200006C08091C00085FFFCCF1092C6009150A0
:10013000C0F70895FC0107C08091C00085FFFCCF87
:1001400031969093C60090819923B1F70895FF925C
:100150000F931F93182F492F20E137E2E0E0F0E0E2
:100160008091C00085FFFCCF812F942FB9010E94A0
:100170000502605D6093C600C9016AE070E00E94FC
:100180000502062FF72E3196E530F10559F0812F43
:10019000942FB9010E940502182F492F802F9F2DFF
:1001A0009C01DECF1F910F91FF9008956F927F9277
:1001B0008F929F92AF92BF92CF92DF92EF92FF9277
:1001C0000F931F93CF93DF935B016C01E12C81EEC2
:1001D000F82E85EF082F85E0182FC0E0D0E0809141
:1001E000C00085FFFCCFB501C601A80197010E94A0
:1001F0001902205D2093C600C801B7012AE030E053
:1002000040E050E00E941902922E832E742E652E3B
:100210002196C930D10589F0B501C601A801970121
:100220000E9419025B016C01292D382D472D562D96
:10023000C901DA017C018D01D2CFDF91CF911F91ED
:100240000F91FF90EF90DF90CF90BF90AF909F9075
:100250008F907F906F900895299A84EF91E02AEF14
:1002600030E0F9013197F1F70197D9F7299884EF38
:1002700091E02AEF30E0F9013197F1F70197D9F7D2
:100280000895219A229A87B18F6087B91AB88FEFA3
:100290008BB90895813069F082301CF4882361F0B5
:1002A0000895823021F0833049F487E003C08BE069
:1002B00001C08DE088B908958EE088B908950E9444
:1002C0004A0186B190E024E0969587952A95E1F75A
:1002D0008170359982604A9984604B9988604C9905
:1002E00080614D9980624E9980644F99806808952D
:1002F000EF92FF920F931F9383E00E945F01E82E1D
:10030000FF2400E010E0102F0F2DFE2CEE2482E0E1
:100310000E945F01E80EF11C011D111D102F0F2D11
:10032000FE2CEE2481E00E945F01E80EF11C011D0D
:10033000111D102F0F2DFE2CEE2480E00E945F0176
:10034000E80EF11C011D111DC801B7010E94D60065
:100350001F910F91FF90EF900895E0E8F0E0808109
:1003600080688083E1E8F0E0808180618083808123
:10037000836080838AE592E690938700809386006D
:10038000219A1092890010928800EFE6F0E08081B7
:1003900081608083789408951F920F920FB60F9218
:1003A00011242F933F934F935F936F937F938F937A
:1003B0009F93AF93BF93EF93FF930E942C01FF9104
:1003C000EF91BF91AF919F918F917F916F915F91CD
:1003D0004F913F912F910F900FBE0F901F90189546
:1003E0000E9441010E944B000E9480000E948000F8
:1003F00080E091E00E949A000E9478010E948000B3
:100400000E942C010E942C01F7CFAA1BBB1B51E1BB
:1004100007C0AA1FBB1FA617B70710F0A61BB70B74
:10042000881F991F5A95A9F780959095BC01CD0119
:100430000895A1E21A2EAA1BBB1BFD010DC0AA1F25
:10044000BB1FEE1FFF1FA217B307E407F50720F03D
:10045000A21BB30BE40BF50B661F771F881F991FB8
:100460001A9469F760957095809590959B01AC0101
:0A047000BD01CF010895F894FFCFFD
:10047A0055534220436F756E746572202D20535771
:0C048A0048617264656E2E636F6D0000A7
:00000001FF
