S0120000557362436F756E7465722E7372656308
S11300000C9448000C945D000C945D000C945D000D
S11300100C945D000C945D000C945D000C945D00E8
S11300200C945D000C945D000C945D000C945D00D8
S11300300C945D000C945D000C945D000C945D00C8
S11300400C945D000C945D000C945D000C945D00B8
S11300500C945D000C945D000C945D000C945D00A8
S11300600C945D000C945D000C945D000C945D0098
S11300700C945D000C945D000C945D000C945D0088
S11300800C945D000C945D000C945D000C945D0078
S113009011241FBECFEFCDBFDFE7DEBF10E6A0E027
S11300A0B0E6E8EAF1E002C005900D92AA30B1078B
S11300B0D9F70E94AF000C94D2000C9400009091E8
S11300C0040895FFFCCF80930208089528ED24BF0F
S11300D0FC016083089560E880E690E00E94660079
S11300E061E081E690E00E94660060E288E690E0CC
S11300F00E94660008958FEF809360040895E0E6FF
S1130100F4E084818095848308958FEF80930004C4
S1130110E0E0F8E087E490E18087918780EC8683D3
S113012008950F931F93CF93DF938C01C0E0D0E029
S113013007C0F801EC0FFD1F80810E945F0021962B
S1130140F80101900020E9F73197E01BF10BCE177D
S1130150DF0778F3DF91CF911F910F9108950E94EB
S11301606B000E947B000E948500C0E00E947F001B
S113017080E090E60E94910080E38C0F0E945F0073
S113018086E090E60E949100CF5FCA3008F0C0E09C
S11301902FE784E89EE1215080409040E1F700C0C1
S10B01A00000E4CFF894FFCF46
S10D01A87465737420000D0A000052
S9030000FC
