S013000053706565636854657374322E73726563E7
S11300000C9453770C9465770C9465770C9465770E
S11300100C9465770C9465770C9465770C946577EC
S11300200C9465770C9474770C9465770C946577CD
S11300300C9465770C9465770C9465770C946577CC
S11300400C9465770C9465770C9465770C946577BC
S11300500C9465770C9465770C9465770C946577AC
S11300600C9465770C9465770C9465770C9465779C
S11300700C9465770C9465770C9465770C9465778C
S11300800C9465770C9465770C9465770C9465777C
S11300907F917C7472777D80878B858C8D8A7E7E40
S11300A080787767828B827A7975767E858A8A8D65
S11300B08780837B74707D658894807A696C747D95
S11300C0858C8D848988837A797F8A6D868B767511
S11300D06870748590888F8D878588847D7A77642D
S11300E0917D716F73777D80848B8D8A8B828581FE
S11300F0777F6C75947C716F757578808C90939311
S11301008D867F7774806680957F76666A7A85852A
S11301108C91888A88887E78767967789A847472D4
S11301206E6F7C868792988F867F7D827A797268DB
S1130130928380696C747F868B8E8C8A8A82828497
S11301407D737C5D868B796B6970798189899693DF
S1130150908B8782796F79558E91786C6D6C7A81EA
S11301608993979491897F777A75795E928877607D
S113017069707E87879396918B8681827877736185
S113018091877467687074858F92929994897E7F41
S11301907970795C9B917C6C616A75828D929C9B71
S11301A089857E76756E835B869A7664616B7D8BBA
S11301B0929992908782827E7D7C706F5B9A8C7D0F
S11301C0726D728486898D8B938B827B7D77747537
S11301D05F9B90786C6A6E77848B9491908C847E0C
S11301E0817C7576549F8C6F69636F82858D909046
S11301F08C8C8E897C766F7758A29274666A67714C
S1130200878F9795988B857E7979787E59998D71AA
S11302105E647276868895978D8F8E83837E797FD0
S11302205C739E816C65666E82899295978F8F8EC2
S1130230847C736D7841909D7A6E6265708290992A
S11302409DA099897E7C766E7C4F74B08268565DE1
S113025078879394999C9993857E7973635B62A55F
S1130260877B6066717A8D909EA1998B827E757072
S1130270745069A8886C5D5E6F7E8B959E9E9A8B88
S113028082847E797F4779A7806E5B5F6F839492C7
S11302909697918D8E897A706C5B5FB08B71575F86
S11302A06D75899195999F9B8C7D776D6987588130
S11302B0A27E64586473748A9DA09F948C85828006
S11302C07872794CAE906C58536D87909393979D48
S11302D0958E857A756D7B33879A7C665D637A7EAD
S11302E08C94A6A4979282787675774285A2866CC0
S11302F05E61717E91999F9F9593857F74686C4B25
S11303008C9B84715B64728994928F989B98876F9D
S11303106B6D7C5183A778645965737D8C96A19F1E
S1130320998682847B81796E3CA49A81605A617B30
S1130330899198979497928C7D6F6379596FA3856F
S11303406A6063727A8494A09E9992887E767173AF
S11303507C50989979635762778392A09E9F948B7F
S11303607F7677787E4596A17E61555A7288919BF7
S11303709B928F9492797C697C478DA1755D5465BD
S11303807D878E8F94A09F968C7379707B4D73A517
S1130390857263656E778A999F9A968B887979744A
S11303A0616A4FA99C855E5B6C7687919998989554
S11303B0887E7574727C6961AD846B5B5E73798EC3
S11303C0919B9B9991878482796B7E3D83A97B6AFB
S11303D05F666A7F919A9E9C968E887A7E736C5F24
S11303E05DB4876D55606D7C8792979FA2968F7AD6
S11303F07374767252A7886F5B596D6F86999EA449
S11304009F8F848685766E7042A49A745B586A7650
S113041087969B9F97968B837C746E804283A5837B
S113042065576D7580909695999490887B777571D2
S11304307847A7957D605B6B6F8592979D98938AAB
S1130440897D7D746B5C5EAE8E775C5C6A76899A1E
S1130450999F97908E80756F7081498D97786059B8
S11304606D75828EA1A39E8F8987837A727A497A69
S1130470997D6C5D62758592969E99928D8C827A37
S113048068745078AA826B5E69737486919D9C959A
S1130490928B78716F806661A990705C596E7884D4
S11304A0949EA0948D8D7E7B756B884C969A78660D
S11304B0596170839592999B8D908D827B7C6B742E
S11304C046A194716361697287939499A09B8F8804
S11304D076716E7D526CAB89675B626B7A8F9CA080
S11304E0A0968F80817A74746554A58F6C5B616A61
S11304F07F8A929E9F938F88857D7371724BA48DA2
S11305006F5B636B748B92999E9A948A867E756AEC
S11305107A45999779635B66748595909E9C9992C8
S113052084797472785569B181705E62696F96944A
S11305309E9F978C90876F706988448DA7755F5EC6
S11305406C6D8B95979BA092867E7C7B73737143B5
S1130550A594776A6A68797D91989A8F948C847B44
S1130560766B7D4991A67A6B5D626C808690A09FC4
S1130570968B8C82766E815480AC7E6257596B79EF
S11305809099A09E9A8F85837E74785379A17C601C
S1130590565F738391989BA09D8E827E7A74726B52
S11305A062837B776F7179888A9190868C84848743
S11305B0807C6C7874767A7F7C7D7E827B82868078
S11305C08488847E7A7F7B787D838183828080782F
S11305D079808385837B7D81777883868587817E17
S11305E07A777F817F7F817C79817D828888817A17
S11305F07A81817D7D7E7C80817B79807E8287800B
S11306007E7E7E7C837F7E7F7B837F7C7C797B7A0E
S113061082848281818081787A8183877D767480E7
S1130620867B7E8080848A827D7E7A80817F7E81C3
S113063084797D797C7F818087807D787D89887BC2
S11306407D8286807A79757A8185897F777C7983C2
S1130650828A857C807E7C71757F878A817C7F7DA0
S1130660727D84868B86857A7B7274817E84817A9E
S11306707C7C737C7F7D8987887D8379767D768594
S113068083847F7E757F8887827D8487857F7A8057
S11306907C827A827B81837E8282867F7F74727E73
S11306A07F847F83897A707C83848B7D7B7B7B7C56
S11306B07E767483808187867F887A788A85828033
S11306C07E79736F797F788087908A8F81787F862F
S11306D07B767372818274747F898A8A84878B841F
S11306E084746D71717F8387898274788E87837D2A
S11306F07F7F867074727B868E818181807F857B0B
S11307008481746E7C7D837E7D84858484808A81EB
S11307108D7F747472737D81777C84878B8B8184E5
S1130720827D8B857978676E797E7D8480778B8BEB
S113073084878389867D7D776C807B75777C808ACE
S11307408B7A7D8F898A79788784727B777C857FA1
S11307507176838B8680788385847D87817A7879A6
S11307607F7E7A7B7D7D818A877F7A7D7C87847E8C
S11307707F7B7F7B7B7D8E897773808284826E8092
S11307807F7F867A82848A7E7D7D8285787071807F
S1130790808F7E70798195887D7E877C7D837D7A4C
S11307A07777788787787B7F85827F84867E81854B
S11307B0747D847A7D8176748387907D6D76798665
S11307C083888B877E7A7F857A70787C847F807833
S11307D076797C8E938E89896F78837E7671797928
S11307E080797D867C7E85899088858583776B7703
S11307F0777A84736D7C81908784868A8B85837EE7
S1130800757270877F6B747E7C888C8D877C7F800B
S1130810857F7F797B78798380787786817D8489E9
S1130820887A7D7A787C8084867D7480857D8086D4
S1130830777D7F87857F747273858E8782837A7EC6
S113084085827B7D857A757D7D7E76767B85928DAE
S11308508A81757D7D838480797573746F808E88B9
S11308608180888289837B81817F7D6C777C707BAA
S11308708A8F8B797578888F92827A7379797A796D
S11308807B8285887A79807D868584868178767E68
S1130890867C7A7F7A877D758085808377807D7F6B
S11308A0808886818375767C75878A7C847C6F8357
S11308B0857982828A8B7F73767C7D868384827934
S11308C076837781847C85797C83837B80867E8232
S11308D0837D7D7C707F817E83807873798A98861E
S11308E0838481787078798787797A78797E82832E
S11308F08F8E867E75757A787A80877D857E7B7CFF
S113090076898E7F757E807D7F80837683818680E5
S1130910877976837D7E8079717C8B928A797975EB
S11309207C818384858081746E79798788878186C8
S11309308C75718084807B7787877B7372818C88C8
S1130940817E7D80897E7D797F78817D84857D77B8
S11309507D76827C81827A868C897B777C807A7EA4
S11309607F85847771777A87878986847D7F828182
S113097080797173888B837D7E7B76758584857B96
S11309807A8786787B827C80788A8C84736C787989
S11309908C877A7A828090877E8278767C8B898035
S11309A076716A748D93827D807D848E7E7D777569
S11309B0787D8E847171757D828A887F858A818530
S11309C07A797F7B7B82808476727A79848B8F823A
S11309D07B8484848472787978777A81867F797845
S11309E082858C8C87817F707A837B786E737B9809
S11309F0A1898A7D6F757D817275796A696E6F7759
S1130A009293969F97938E7F728B8EA59E81757E0F
S1130A105F6F666C685C5A70726A7C6F7D787D8AE1
S1130A208C7F8C928B9092898A948D938D8C9085F7
S1130A30807A787C7E767482847E887F827F726DF1
S1130A4069697874696A7F7680938A998C86888CC0
S1130A5080877D7A807F796D7364707E7F80787AF9
S1130A608586758E988D7F6C5C5D6B6D7F6C8381E4
S1130A70778C8C979BA39A919E88768192989A9B67
S1130A809E88878A8279726F6A6E5F5D6760736918
S1130A9063646A6E70788195928796A6978B807747
S1130AA08E9380787078747E81896D6E76757C867D
S1130AB0837C7A79727D868C7A787975797B918654
S1130AC08A84727C7D8C868A999994938C89858793
S1130AD08B827B736B716E7A77706F717283867E93
S1130AE0817F7C777478787D7A898A8A9693928BD1
S1130AF0857C7F7D7D7D746D75786C78696D706F94
S1130B007684807F7E7D8786858B847D737F757DEB
S1130B108A80847D82958891898D97A29C927C811C
S1130B20787882787572707E7C7772737179797F48
S1130B307E78817A727776757F8D8280928C969A90
S1130B4088817E838D766C7367777E7E7977777400
S1130B5071727A837977787377827F8F8C7F837BC6
S1130B60808D8684857F7783847D848FA7A99891DF
S1130B70837D80837C7F766D676E706F7D7A7F82E4
S1130B8081797983847973747670737C7F8A99957B
S1130B90998D86868D867D747775786F7677767570
S1130BA06D6F727182897E78777D868C827E7A7D84
S1130BB07C76737A848F968A7E8C8C9092908F8FB9
S1130BC090887E7A797C7D7F84817D7877806F6E52
S1130BD06A6E81807F7E7771777781898687857C4D
S1130BE081888E91858484787579787D7D808280F2
S1130BF0786C6D7077787375777979768189888D5B
S1130C008180888075818B7C838D8486808A958F92
S1130C1097A28F87797582837E7A74766C757671E4
S1130C20787F84717589848C8273736F79817C7603
S1130C30757C8A968F918F82828D8779726E717599
S1130C40746F78736D707884857F81817C79888AEC
S1130C507A747C76757C83897E818B939494969840
S1130C608B8B8B847F78797C757B80857F7A7B887E
S1130C70827A76776C6D7E7A757F7879777C8584D5
S1130C807B7F82908E89868C897F77867C7476744C
S1130C90777E7F7E78726E707878817C76766A79DA
S1130CA08480858586847F7A828D88888B8C908ADF
S1130CB08A89898991858682828281788086727701
S1130CC07A7D786B726F7676848287867C807C7678
S1130CD07C7D76727D808C8D94978179848A867AE6
S1130CE0787A7070716C737177797D84807D79778F
S1130CF0768985787B7E797582837C8B8D918F91C3
S1130D009093928A818787877D7C7A7E7E857C7F9B
S1130D107A7E7E808178716F6D757F87857F716F34
S1130D20727F7F818584907F85888486877C807E9E
S1130D307776728085807F797B6B71757B7B787326
S1130D406E6B7B83838F8F88817D80797C818A8D94
S1130D508D917C818A888E96998F8280807B7A831C
S1130D6079787C7E79837A707A7E7B828A847376C2
S1130D70726F6777757A8581797D868A7E7B8082BA
S1130D80827F7671777D7A827E8082808590898663
S1130D90796D7A848D88857F818181849B795CBA21
S1130DA00BD5B37F2E4098B7EFB79C43342D7671A3
S1130DB05C4749809CC5D1C7C092907E846F5F48D0
S1130DC049806B5347595A64737C868D918783900D
S1130DD09291958DB1B8AD97969A9998A6ACAD9D20
S1130DE08E7765574A3836233F443A3633424F614B
S1130DF07988949DA0A2A4A4A3A7A4AB9BC3BBAFD2
S1130E00A2A1ADA9ADB0ACA6988C82766D675C57F3
S1130E1049465C4E41373A434A5863666D71717175
S1130E20737373727D6D9097948C90969EA6ABAEFF
S1130E30AFACA9A6A49E9C989685949C8A7F757352
S1130E4075797D7F7C7E76716C6868656857657896
S1130E506A605B636A737C7E83838180807F7E7F2C
S1130E608178788B7D76767A7F858D8F9396969030
S1130E708D8D8C8A81846D8B90847A777B787E8447
S1130E8087878484817C7A7C787673728A7E7B7689
S1130E9072757B82878F8D898985817F7E797C6C51
S1130EA07F8A79726F777C7F82888D868581827E46
S1130EB07E7C8070748E7C766E6E757E8687898566
S1130EC0848582838281827C76847D75717578794C
S1130ED07B7C8085878989878580817673948A7DE8
S1130EE07576777A84898C918B858882807C787DED
S1130EF06880907E716A74757D8186908B82818012
S1130F00807F807B7A7286858277767C7F818789F1
S1130F108B80818A87817B77796E68888279747403
S1130F20767980818C8D87898A867E75717D6187CB
S1130F308884746E7376858A8A8E8D888A817B7B99
S1130F407B816F818C7D716E74798182828B8D85BA
S1130F508789827D7E81657C9080766A717B8283BD
S1130F60888E908A86838680787875648D837B7773
S1130F7077797B7D80888F8C8A86877D786F776987
S1130F80798E83807475757A7E8B91958E8984822F
S1130F907B7A757A64879387746A6C747F8C8E8C81
S1130FA08C83807D7A797C7B756A9780776B6F7987
S1130FB0828987868A8B8B8F887D75717965918C00
S1130FC079746F70797E83888984888582817D7A3B
S1130FD08265858D7B6C6D6D747F8D929B989088F6
S1130FE0897D8076806283897C696B707984898C41
S1130FF08A8D89888784797A767366908679717107
S1131000737883828B94938F8B857E787677686EE2
S113101096827A696F737A888B948E8F8D857C74AF
S113102072707F5B8892806E6969788C9195958BDC
S11310308E87827C787C81666C99847668667380FE
S11310408A8B9291938B877F797B7A6A6498826F7B
S11310506A66777E888D8D8E8A8F85837D79797C8B
S11310606A8984716A707678828C86908E8D8B857D
S11310707B7975835A8A96806B686B6E88978E939A
S11310808E918B867D7E76737754948E776A676AA9
S11310907C8C918F90969487827C79766D68659C20
S11310A086796964758592959190918A837E7B791E
S11310B06C734B8D9A7D6C646A768790918C8E915B
S11310C087868177727953899B7F6D5A67778A9374
S11310D0969C93928F80817A737E4F899A77676109
S11310E0677480919497908B8987827F78845F79E5
S11310F09C7C655C6E757E83898C8D908F8D8184DC
S11311007E7382529792725B5C6C708B90949A930C
S1131110958D897F7C776D6652AB896D5C616F7F3D
S113112090959B999A8E8C887C7966764982A08466
S1131130726068738692969A95948B89837D746F96
S11311405E63A1857A5D666A818B9497948B8C89A2
S1131150857E6D70555AAC87685E5F727B90909700
S11311609294938B857D76707150B09870615C6AAF
S1131170788E939B9B979189867F72707C4490A311
S11311807668575E75858F909A9496928D81807655
S11311907A725BA18A6C575E6C7B838B969795946D
S11311A08E86827C6B824D7CA37E6058616F808AC0
S11311B094979695948D8B8072785F56B08D68580D
S11311C05E647D8C9A9D9C9C94918B7C7362625727
S11311D09C877E666D6B7E8A96999A94908C8883A0
S11311E074686853A78A7A5F5F65738B95969B983A
S11311F08E86847A74657A3C969D775F576478848A
S113120090939B95918C86847F76746A5DB58C6E81
S113121064626A7C8D91979C989388837D766979C2
S1131220566DA97E6C5F667081898F9A9895918BB3
S11312308C8179758B51909A726056627181899410
S11312409B9A908F86807B6E7A4A889C735E525DEF
S113125067838A959D9B969792847D74834690A418
S11312607C6057606A86909BA0A09E8F8B82786A70
S1131270635369997E7A676E6F808E969E9F95916F
S11312808A85806F6E7355A194766257626D8895D6
S11312909E9F9592898277746C6F6A49A285745B6C
S11312A05D63768A939D9A96908D89857C7785581F
S11312B06FAF8B6E5C6072858C999B98958E887EDF
S11312C078726C703FA39075625A67788696959F82
S11312D09A979589857F7B87499CA0715C5460713E
S11312E07F919899938E85867F766F7A3E8B986EE0
S11312F05958616E818A9998979696908682817BD7
S11313006C5CAB90746061697E8E99A19B9B9087A5
S11313107E7A71606751769081766669788A939B4C
S11313209B9C968E87808273707D4B92A282655CB3
S11313305C74878F969D9087827F7B736B735C59F7
S1131340A38368585B6F809098A19C99908A888544
S1131350777B6B5CAD8F73595F6D808E999C9B9688
S113136095888580706B7741A295705D565D748415
S1131370939C9D9595887B80756D825976AB83642B
S1131380585C6C808E9EA19A958D84877F7571853B
S1131390429699715F59627989969E9995958B8B3E
S11313A08578706F7144A19072645A6C798A969EA4
S11313B09996938D8D7B6F6C775378AA7C6D556568
S11313C06E84979AA095928F9080796C785D68A9C5
S11313D07F6C595B697E959B9E9A928586867B6F0E
S11313E07D6060A78264605B6F858D9E9995948A09
S11313F088828275726C50AF8B6B5C5A69808A9557
S11314009E98998E8D8980726D804382A97B6B59D9
S1131410576E828F9AA39C968E8B867D716C7A40D0
S113142099997965565F7785969F9E98928C8A8361
S113143077756F684BA888745D5C6D7D86969A9C01
S1131440998E90857D736D7E4092957A6B54657804
S113145084939C9A9A968F877E77707E468F9D7A26
S113146063595F7981949D9B9C908D887B786F7C78
S11314704A95927961616576839399999A8E83816D
S11314807C7A75776B69867E7673787882838D8DA6
S11314908B8683807F837C797A757C7B7C80827C5D
S11314A07C807E85808085827E84807D81807D7F36
S11314B0828182787B7E7B85847B7A7F7F7F857F38
S11314C07E83807D7E81817D7A7E807E817C798130
S11314D0827B7F7F8083837C77797F837D7D82801D
S11314E08383837D81797A8285827D78777D848305
S11314F0817B83828A857A7C817D7C807E807E78F4
S1131500777C8487857A86827D82837B837C7A80DC
S11315107F747573994C959CA1AE8577345B6FC8C5
S113152097831E3761849AADB68DAE90A37E783EC4
S11315304FB28A595D787F809DA6A9AD94896F5179
S1131540434424BB7A6A3A3C617EA3A7B7BECBA8C6
S1131550A796657D3AC0AA6E543E4F717F94A3A2AC
S1131560A3A48E8B79803C9F9A623925475D70993C
S113157098A3ACB291928A994DA3A26B4D445E6F2D
S11315807E7B8FA39595917F86448EAA7F6B55535E
S1131590526B738B849B988E937243ABA090746947
S11315A0657983949CA4AFBB9BA168AA9C8769546A
S11315B05C59616C777E87827B7747A97F583A3C78
S11315C0506D8596A4B8AAA1B672A3C6815A465195
S11315D060787A949691857F6F76C78663493C5389
S11315E07382909C9789877B73C79E654C595A7008
S11315F0899CA5ADAAAA7693D1976C55544B6B746C
S11316008487927E914FAAA06E4B4D5A5F7C73954E
S1131610938E9F6BAEBE96755E6A637A818A8F8C59
S11316209D5FB5A47C514049555E799189A06B8832
S1131630C089705D5F5C7D748A88A87C91CB9D7E37
S11316406163607989969CAA859AC6957F645F5E7A
S11316506A70717B8F5A93A488664C5862717C853A
S113166081985BB0AC8F66626C7284988FA08F7621
S1131670C49C7E5B5753666E737F8F599FB08D6891
S1131680575B5A6F77989F8286BB8F6C68636C71C7
S11316907E8C939883D0A98775696B7984829777B8
S11316A0A3B98A694D525D6571769357B1AF866A65
S11316B0625860707D9C65A5BA94816E7077788558
S11316C09A7990B5926E5E595B676F807270C2931F
S11316D07A5F56606A768E8D71CAA687615D63757E
S11316E0878A986AB9BA947B7672758586A168BC34
S11316F0A691735D5C5C6A758A5EA09F856A565A82
S11317006B78808B5AAEAB856D6062778193947AE7
S1131710CDB58B6C616164768C6C83B68C705657D6
S11317205A69728A61B9B0866B616D6B74905DA4FD
S1131730B99C84646478789571A7D8A88B6B6C7312
S113174076877177C6957B5A5A626D767160B8A2B6
S11317507869666A726E835BC1A0856F646B7583FA
S11317609F76C1AE886F606468758961A8A3846937
S1131770545C6575895AAAAA8E6F656170788F6109
S113178099B994806E667077976AADD1A5867A68A8
S113179072799B5EA2BB917255505F6F815AB1AA58
S11317A0856A5D636A816D74B9947B66625F6F92CA
S11317B06CBFC099776F6D69866887BD8C785A5BFA
S11317C06269785BC3A17C64636B67835EA3BE902C
S11317D0766464667B8179D2B1926D716E759B6F0C
S11317E0C0BF9675626064877676BE8D7E685759F1
S11317F05E815B9CAF9176686268747862BDA385F4
S113180070667173966BA6C5917667686D7A746A13
S1131810B6967B585962667C5AAEB1936E616E6F10
S1131820885E99B28D6F626C6F877D8BD1A88D8134
S11318307B7882727DC19B7B686961706A71C3A485
S11318407D65605C6F6865C0A8876659586B6C6677
S1131850C1A88F78726F7D7D72BCA38B7461626D39
S11318607664B59B7B6B6164687859B5AD8B6961AF
S1131870616A8B66A4B28F786C6B7389718BC8A80C
S11318808D7A6E75858182C099836B6061667A5E9C
S1131890B9A1846E5B60628A64ACAE8D705E5E5B7F
S11318A07B55B0B48F7A676F76906AB5A98B7162F5
S11318B06469815BAB9D7F696464707861B3A2875E
S11318C06B6E657A677ABA9E8868636A8F6B96C313
S11318D0A1886C76749C74A2B8907466645A7A5A1F
S11318E08FB69B785F6461805E9CB7967B63635F11
S11318F0864A8DAE9576676D70926DA1BA9A815FB6
S11319006469865A98AB8370585966865F93BB9214
S11319107966666A8666A0AE92755D5E6A9168B9FC
S1131920BA968375717C936CB6B08A705D66706D7F
S113193066BA9D89696161796585C0957E6D6665C4
S11319407D54939F897668696D836CC1AF88756C8B
S11319506A7B7173B39478606160786883BC917BAF
S1131960655F60876598B7987B6A64607D5DA0C198
S11319709F7D6C75779871B2C19C7D6768627D5854
S1131980A7AA9271645F648262B3A9826B6E646772
S11319907C62BCA679625C566E7B73CAA7896E6E44
S11319A06F806F79B99D7A64595F7B599BB18D7D46
S11319B0655F687A67B4AD8A73675E73627BB99A50
S11319C0837673788C5CB7B99F847870766D73BABC
S11319D0987F626D69816083B594776A6B6B865872
S11319E0ACAA9070575C65765EB19B856D6E76840B
S11319F06F7EBF9E816860697E627CB29877646105
S1131A006982678CB28D7A706C64876294AF8B74D0
S1131A10676A699769A9BCA2867472739065B6A750
S1131A208D6C635E6E7666B59F8C6C69657A6D832A
S1131A30C3987A63605E784CA3A784776B6A7676E2
S1131A4077C4A08A6E6864775C92B7976A60606EA8
S1131A50726CB7A2856D64637B5A90B999806B6888
S1131A60637F59AFAF987B7375827F6ACFAE9468FA
S1131A7067687F6579B79B816267637D58A5BE9768
S1131A80786A6C687654AEA5836A61656C7659B7DA
S1131A90A98F7768707A6D76BB8B7F706863785690
S1131AA08EB6967A675D6A7D58B4AE8C766C69762C
S1131AB06C69B9988776716D8864B1C39E7A7176C2
S1131AC07D6C6BB197826C686883589CB1917B6321
S1131AD0637C7970BA97806C63617F5598AE866A2F
S1131AE066686D7D6FBEA7836E61657F5E8AAF9207
S1131AF07261646C7F5DB1BA90705C5A74796DBD2B
S1131B00A5846A626B7E6B82C6A5826F6B739269D1
S1131B10AAC29276605F638261B7B0866E5F5C6FC3
S1131B207776D0AB8869585C78608ABB967A6357BD
S1131B30626C62B6AB95726C69815793B08E7563B3
S1131B4062727063BBA1836A66627457B9AA8F76A6
S1131B506766845D88B295796C6A738079C9B1943B
S1131B60776E62805DA0B68F6D64686C7967B6A28B
S1131B708C74686B826380B29883666A6A7E5498B8
S1131B80A28B76606A708663B6A57B6963677C7294
S1131B907DBD9877645C638357A4BB8D6D64616D70
S1131BA08165C2A98A6E645F7D5F94C39B83736EF3
S1131BB077866CC2AE91745A5E7C5894BB977F6AE8
S1131BC05A617A66BCAA95786862725596B68C7F1B
S1131BD06661655E65B29D887972698656A1AD8835
S1131BE06D6A616D6673B9997E68686B865F98AC3F
S1131BF08E7E6F6A6B7A61B3A7867173787F7C87F8
S1131C00B8A08A7175748269949488766B74797DAE
S1131C10778E81867E7E7E8080818B80797A7781C3
S1131C20817B83807C746D7A83868B8976717876E8
S1131C30787F7F8681727074727F817F86817A77E4
S1131C4075787F888182827A7F8587878E8883876B
S1131C508D8C8E8D898D8980837D7475777A84834C
S1131C60868178727A7F85867875727170797D79CC
S1131C707D6D7B83837F817B837E79808182934B9F
S1131C80A95D4BD5AD3A3F8B9E9BABB38F83915DE2
S1131C904A20427672BDD6BBA480838F6FA1B485DF
S1131CA0705B4C664E708A755D554E51526D988AC4
S1131CB085878C9DA0A8CDC3B5A395929D89A8AD19
S1131CC0977F695C5F5251615244363236483B61BA
S1131CD06F71717073868D8CB3AFADA7A4A5B4ADCD
S1131CE0AFC9BFB5ADA8A0A58F959D8A776B686075
S1131CF0624E575B514B4542464E42606865625F97
S1131D00626E6E6D8A868281848D9A919BB4ACA634
S1131D109D9C9CA49CABABA59C9696918B8B9B9510
S1131D208777716F6D63767872665C5E66656379DA
S1131D30766E69686668646E837C7D7A7A787F7C67
S1131D408A8F82817E7D7E8079908F8A888487883D
S1131D508885978D8D88818387818293867C76762A
S1131D60777D7C7F8E827E77787C7D7B7A8E837B89
S1131D7077737278787C9087847E7D757E7D808F82
S1131D80827C7877738271878C858179757A807289
S1131D908F8B867F7A71767A7E968B7E747572804D
S1131DA07185918275727A7D7F7D9091837A747248
S1131DB0787B7C928C7F76776E7D778FA093837D02
S1131DC07D787F748892817B787275796E8E928C1F
S1131DD0847A79767F778F8E81746F77788070912B
S1131DE089817E827E7F87758D89827F7E7B7382E7
S1131DF0768E8B7E7777727387758D91807C7C74F9
S1131E006B716A90968D88777070867C968D8385C9
S1131E10786E7B7D739283857C75737B7D7A8C8BE6
S1131E20807B77797F79828D857A707178807D8FD8
S1131E308D847C767A7983749B998A8471747A7D93
S1131E4079978D796F71777B807C9D8A7F7879769D
S1131E50717C789B8A7E8077777D7F75978C7E787E
S1131E60797A8085788F847E8076787A7A65898796
S1131E708A85787574827191908682787673816E82
S1131E808C87857F757D7B7F6E949587887877783E
S1131E907B698D90877772767C83709292877A764D
S1131EA07B75786E9591807778787B7A78978A7944
S1131EB0797B797D757C9387837C79747F6D84A32A
S1131EC08E7E7A78717B6B939C8C7E757773746B42
S1131ED0939C887C72756E7E768A9A8B80727570FC
S1131EE07F7A8996887F73736F7D7C8396888479E3
S1131EF076747E7E76988D867774787E7E699990E6
S1131F008275727884826D9C8F7C706E6F82806E15
S1131F109B927C7874777E7D749F9581756E7A78B8
S1131F207176A3908373717D7B6E79A38F847071B6
S1131F30778070849B877C7575788372879B8275A4
S1131F4072777B87718D9D82746F757A816D97A28C
S1131F50817770777C896D95977E777475768171BA
S1131F60869E8C7B7174787B7279A58D817A777566
S1131F70777565A196897E7575757960999B8E8054
S1131F8075797281658F978D8178746E7E628F9C6E
S1131F908F827C71707F6190A38E7A746C6F7F5F87
S1131FA09A9F8E7C756C778461A3A08575756C6D22
S1131FB07D62AE9F85736F6B727A6DB49E87766F08
S1131FC06771776DAC9783766E6C77787DAA94820F
S1131FD0746B68767B79AA9183756F6B788372A52D
S1131FE09C8475686D778667ABA68D7269696D8709
S1131FF0629FA88A7A65676D896D91AE8D7D6568EB
S11320006B88658FB0927B64686D866D8BB6997DA5
S11320106A676B83707FB092856E6D6B806E80ACE7
S11320208F8C776C657F6487AA8E856D6B6D845EFB
S113203091AE8C7A696D70845C96AD947C67696CA2
S1132040895AA2B0907465696E8A64A0B08E737068
S11320506D6E8759A3AB8B72706E6882638CAF9A76
S1132060746B6A75836981AC99766C636C807A75DC
S1132070AB98827A6D7177816BA89D887369717151
S11320808562A6A38D7578776C84559FA88D776E2D
S11320906F7085539AB18E76706B6E855897AB903E
S11320A080716665855D9FAE8D7A6F6D6A825BA077
S11320B0AD8E7D74696A875EA8A08B796F6C6E861D
S11320C05FA99E8F7A6E616B8567ABA38C76695C22
S11320D06C8A69A6A48B7367636E8C64A3A7907CD7
S11320E06463708A6996AE937767676C84757CBD08
S11320F09A7C6365747E7F68B795807264687C841B
S11321005EAEA38775696A74806399A38F7F6972D1
S1132110747F659AA78C7468716D826A93B8947D94
S11321206C6D657D5E95B8997B676A68805CA2B3C7
S1132130907A6962688160AFAD8B74676B6B785C11
S1132140BAB2867060656E8164BAB0876D656F6E71
S11321507E60AEAB8D73696A698164A5AB8D7E7058
S11321606869856397AC8D7A69666C7D6E85BE956A
S1132170806C6271777D6BB2A1826F5F6F738763CE
S1132180B0A188756E7770875B9EA48A746C716841
S1132190886699B0927B696E6B835C95B092766821
S11321A0676E866093AC997D6B6C6F7D6297A79127
S11321B07864696F896A9FB4907267696D8360A659
S11321C0AE9174666A6C865FAEB38B6D5B6A738E18
S11321D065A3AD8B6E5C6E6D8B5D98B99373676F01
S11321E069855D95BA9375666B6D816782C0987CCD
S11321F06A6F6F787F64B9A0816E6D6A6C835CAE20
S1132200AF8F796B69657F54A6B0897C716D6A7BE9
S1132210688EB68F7E716D6B776F89A98D806D71B5
S113222074807A8B9B88806F77727E768993847DA5
S11322307A77747F788990847D807B7778757F86C0
S11322407E7D8986817C777D7E787B8A897E817D8F
S11322507C7A7D8080827C857D7D7E817F84857F84
S11322608274797F847C877F7D84787C84807E857A
S1132270807F7E7779817D7C7D82898B7B797A7D75
S11322808182827E7B7B7C7B817E8089887F817C4E
S1132290777B77828581807E7E7E817A8582817E4E
S11322A0797879838087857B7E847C787B7D89833C
S11322B0777D85797D7D7E8B897B807F7A7B7D7F31
S11322C0838080808778767A828382868284797418
S11322D07781827E7F8089777B8382787B8182830A
S11322E07C7C7E786F868A85857884857D737A8107
S11322F07E837D7786817C807A808B8980858375D7
S113230074777786827A81867683848082807B7DE7
S1132310827F7F82828781797A777978778A8884C5
S1132320847D7D8987767D76797E7F848874767DC9
S113233071848D879083727D8470767E838E8470A1
S11323407979767B878B9C7E7583746D7787838C94
S113235080827B78798086868B827B7B75767D858F
S11323607F87897C82767A798A897D7B7A7F7A8471
S11323707F87767D7D7D8784838283727983787A73
S113238079768690847E7873808A7E7F84807A785A
S1132390727D80808185827B7B79898C8682808432
S11323A0787A7E827F797889837275809193827539
S11323B08181727E7C8B877E777E746F7A7C8D8E32
S11323C08E8D7C75737F80868285837C6F6E767E2E
S11323D08885848881867E737E7A7D808479737D06
S11323E07E867F848077827D80838B807E807D75EE
S11323F07978877057AF8269D78D4854658488C0CF
S1132400CEA06B2048896BA9DA938A3427667E6351
S1132410CFC294713834955F99E5AF945B48518D80
S113242045CFC2986F5251747162DDAC865F4E53D2
S11324307F6978D7A37D5F5D598D7473D3A576606A
S11324406762867B6BD6A9825B5E5B82815AD2B05F
S113245084606062738552C4B78A6B65626A8B500C
S1132460B4BC887965656D8756A5B98F7A5E656653
S11324708352A3BB927A68616B8553ACB38C72634D
S113248069708159B7AA8671706E757661BCA6832E
S1132490706E6A776778C49F7C6E7069835892BD4A
S11324A097706B696A7D53A9BA92756863677B52AA
S11324B0B5AE8F75686C707E5ABEA58571686C6DFB
S11324C0885EB9A5826E636D73885DB7A7856F62F8
S11324D06C6E8A60B1AB886C66656D8560B3B68DD1
S11324E0756A6462805DAEB392726363657F62B73E
S11324F0BA8D746260697B63B6A788766B67727104
S113250072B49C8B716D69805E88B4977E6E706CBA
S11325108256ABA6866B6971817379BB90756B6BC0
S11325206E855B95B98E74686B70805AB5AD8F6992
S1132530686A7D6F71B69D85646F6E886187AC8AA9
S1132540836A72718C579F9F86796B6E739060AAB1
S11325509F82716172749162AF9F806C6C6D788A96
S113256060B39F836F696A75796EB79884706B6A7C
S11325707D7578B78C82706A6D846B81B58B83713D
S11325806767845CA2AE867D75696D8064B2997C50
S11325906D756B7C6B87B78B7670766D825CADAC3A
S11325A0846B616875727BC0A481695F6B895D957A
S11325B0B6947564626D895CADAC91736863767E24
S11325C065B5A0866D6563817B78BC967F665F6820
S11325D0837782BB957B6A5D66886E94B88C7663DC
S11325E05B6F8C6B9FB79272645A698665B3B088CF
S11325F06D6961728269B8A1876F6664757279BF0B
S11326009E806A675C8365A1B18D77646B727E6E10
S1132610B298876F5A6D896599B486786A627578BD
S113262066BCA18270695F86618FBA90776D6C6CAD
S1132630825EAA9F8474746B7E687FB08C79737693
S11326406E8A649FA1866E6870738A65B196846B86
S11326506B6F81846CB49180636B6B83727FBD9468
S11326607B676C62826995B8936F686F6A8564A5AD
S1132670A88B6D686D727A71BB9B8365686B836789
S113268096B78E785C636D8D60B9AD88695F607D47
S11326906D86C29B7F655C617A67BAB28D71655E37
S11326A0705C80BEAA876E6B627758ADA79574681C
S11326B06B755D80B6998B71686C7A569EB2977E05
S11326C067636F7061B8A5907A64617E5B8ABD961A
S11326D085776A5F7C549DA8927B79716A7655A848
S11326E0A68B8473716F6D5FB29E84717573795F0D
S11326F080B7997A6F72707F51A4AE897369757BC4
S11327007A64B09D836A6B6A855E9AB48F72656AD7
S1132710767764C4A38367636E805598B7927968AB
S11327206B747867C0A27D6D6562896092B58F74A1
S1132730646274866AC0A78064605C81669DC09789
S1132740706361687C68BDAD866D65687C5D8EBDB7
S11327509880606569835AA6B0977765636F7B5FDD
S1132760BBA788726369786C74C39D8369626B7953
S1132770698CC2977E6960667E55AEB48D77696652
S1132780756B6AC5A68170685F815098BB94796B3C
S11327906572775EC0A18664676683629FC38E7824
S11327A05D6570766CC1A3836761687F549BB7963F
S11327B0746C757D7F6EBD977A69565F6D4E89AD79
S11327C0937A6F77758678C5B5977B63657D82A7A5
S11327D0D0967953554C703E85A0796446695C86E1
S11327E05CB0B3967F6E71777F80CFAA9D85796F39
S11327F0845CA1C09D7B6B6957714FC0A9917073B4
S11328006269505FB192755C6C687F62A0BD9E7F07
S113281076727F7B6FB59C81685C607C5588B181E2
S11328206B636C6D7863BAB899796955613F80B40C
S1132830917B6F65767077CBBAA1837F777864AA32
S1132840CEB49383807E775CA496755C525A6252B0
S11328505DA8916853535874509EBDA1857A8B8F9F
S11328608F68B2AC866D6B6D757261AA9B75676A71
S1132870647A5D7FBA907A6470728F609EAA7E6C6F
S11328806871818064B09987737B819771ADC59AB3
S1132890876F70786A5CB59082665E5B764991A7B3
S11328A085726D7285726BAA8B77706F729569B23F
S11328B0BB9A7E6B6F6F6B67AD9278645B62785680
S11328C08CAE8771636875786DB8A28B7270667D03
S11328D0568BB3A2846F6E637F5CB7C5AC83717C87
S11328E07D7F71BBA68567636E735A70B095775C04
S11328F05E60794FA6B8A0765B60637B5BB8B09EE0
S11329007D707A837775B79681655C647C5698A7E9
S113291085726153656661BBA58972645A8867B024
S1132920B68A6C5E67787C86BF988172717D92717D
S1132930C2BF937C6665716974BF9D816057587787
S11329404F9CBC8D756060677762BBA3806E6367C4
S11329507F7091C6AA897467627F5799AF8D6F6142
S11329605C607856AC9F816A686A71756CB6A3899D
S113297073716C7A5E86B29D806C736F8C69B0BD26
S11329809E817779827970AE9D7F6B6A727C658453
S11329908F7E706A77787A718C8B87746F78807485
S11329A081887E827E879B908C8A7C727773758304
S11329B0787B78727076747779787F81787978818A
S11329C0879090887E70747281848D8B84848086D5
S11329D08D9C8F938F88887D79797D79827D797DAF
S11329E07776787D757D7874807F7C86887B776E3A
S11329F072807C7B838D8D8C848B94827C7C7E7BAB
S1132A00766C71797375797D797470767E81818144
S1132A10837F7C7C8385807E7D8387807F838B8B93
S1132A20888995948989838A84817E827A797C7E57
S1132A308078767779717B7E7D81787C7D7B8380DD
S1132A40777B7F777E77778D88888F8E8B8975717A
S1132A50827E787C7C7A736B6D7D71797778827CE9
S1132A6077828B7C8082848C7875787B838A819052
S1132A70937E838693969389908178837A7D837AF3
S1132A807B7B6F75847A7F82757F7B707A85868C79
S1132A908178786065827E808985888E8285988B2E
S1132AA0867B796F6C6676867F807374656F7687B4
S1132AB0888B8579826876848B8B8D7F7978718514
S1132AC08C959891847D8182958B8891837C767195
S1132AD06D7F7F84837C7A7874757F7C86857F8222
S1132AE07C76777D7A8479797C6C7985878E9187F9
S1132AF09185737584767C8274787066747A768234
S1132B0075737D7C788B86848D7F808283777D7BD3
S1132B1083847C7E8C928B8F9B9D8A8076867D7746
S1132B207D94817A73737B797E89937B816F7778C7
S1132B30787C8982777963736E6C7C89858E7C72EC
S1132B407A837E8187848874737C76748583818993
S1132B507E7D887E8287878A827B7C8677868AA030
S1132B60824CB91FAFC2861F78939A9BAE9278931A
S1132B708050310F597587DAC9AC886E818386B469
S1132B809E766E485A5D5E8E7E684B524F55659BAD
S1132B9091877E8694ACA2CBCEBFAD9893A1918D44
S1132BA0B6A189715C546041555F4E40322D354168
S1132BB03A61686B70757F92929CBFBEB5AAA6A954
S1132BC0B3A8BECFC0BAADA59E9E8D9B99877863EE
S1132BD05E55574A535A4E423B3E434B4E6C6865D2
S1132BE05D5B5F696D758F8A8585868A9B96ADB8B6
S1132BF0ABA39B98A0A19FB6ABA4A0968F948599F4
S1132C0099887A71706D6F69807A6F5F605F6359BC
S1132C10687B736A6063676F65838B827772777D85
S1132C207E7D8E908477757C847F849790877D8069
S1132C30848C85909B928A81827F8B7E8A91857811
S1132C40747A7380738B8C7F7674787681748B85B9
S1132C5081787374777F788E8A88827F7F82857D7E
S1132C608D867A7473767A7A7891847D79777A8589
S1132C70778492807B74747483758B837D7B757683
S1132C807A827A958482797C7E887C80887E7C7640
S1132C90767A817686877E7C787D7E847F93858430
S1132CA0797680857F8391847E727D83867F818B14
S1132CB0867C73787C7F7C8A8A7D79717B7D808237
S1132CC0848881797A7A7F817F828B827E7A7E7D05
S1132CD0847B838A7E7A75787A8279888F7C7E7405
S1132CE074758376888B7D777371768C7A8D8E88F4
S1132CF07E716E7B8778928C80746D74858E8894D7
S1132D008A86786D72807D828F847B706D77857EF4
S1132D108791867B71767D897A8D8E86766E737ABD
S1132D2088778E8D847C77778384788E8B82777096
S1132D3078898178918A816F6A747E8E79928F7F87
S1132D40706E727C897B9089807274797E8C7E929D
S1132D508B847B7D787880778F8A7D76726C7A8994
S1132D60798C87857D78707A8777898C897E75756B
S1132D707A83718784888377777C816F8B90908145
S1132D8075757D7975898A807A7375817C7A878572
S1132D90847576768677808F857F78797F8C708648
S1132DA08F8F867D7E7B826586918C807878777B19
S1132DB0618A958F7E7A7D7B79668A9F8B77797A13
S1132DC0777163869E8D807F7A6E736983A99582FD
S1132DD07E766E6D767BA18F867E7465707C7AA21A
S1132DE09284756967778770A09E8376696D7B8608
S1132DF070A29D82706E73818070A1947B6F6F73DB
S1132E00807775A597806C677583777EAC97776BB1
S1132E106E7B80767DA08B7369717D897B839C87B3
S1132E20726C727C8879859883756B73768A7089E5
S1132E30A38D7D727073837182A88D7F716D738091
S1132E407782AD8E806F6873807C72A49282726B7D
S1132E5073777F66A2988A786F777882669A9F9054
S1132E607E7078737C658BA18E7B7176727D6A85AA
S1132E70AB947A72726B766687AB917973726B746A
S1132E806687AB907B73716A7B6994AE8F7F736F37
S1132E906D826AA1A9887B6D6F6F8569A0A784750F
S1132EA0696B6B8667A4A287756A6E6F8C6BA3A02F
S1132EB084736C6A728B7199A18171656B73897368
S1132EC091A68A77676872877390AF947B70696CF8
S1132ED07F6D81AD927971686C7A7E71B2988372DC
S1132EE06A6D778367AB9F88766A706F8465AB9DE4
S1132EF087756A6D728165A9998B7F737173856912
S1132F00A9958D7B7571747A62AB95886F6A6B72C3
S1132F107262B59A83756E6D766A71B2988A736EB1
S1132F207076647BAF9683706D6C7A697CB3A0878E
S1132F3074706C777174B8A383726F69717270B8AE
S1132F409D84706D67697C66AEA98A7471626C84B5
S1132F5069A0AB8C7E726A6B866D8EA88F7B6B6664
S1132F6066866D8BAB937F6D6865866F80B3997D44
S1132F707065677D746EB6988071616579736FC38F
S1132F809E877B6766856C80BC9382706769806866
S1132F9086AC8D89726D67826596A28E8774716C1A
S1132FA086639E9F917F6E7069855DA3A18C706816
S1132FB067637F59A2AC8F7770686A825DA3AE8E17
S1132FC0796D686987688AB092836F626878707572
S1132FD0B6A2947B6C6B757D62B2A79674636166CE
S1132FE0805AA6B2927562666584649EB9977966C2
S1132FF0666581699AB99B7D696A64887592B9939B
S113300077615D5D856A95B7907A69615F82619742
S1133010B78F7E6965608359A5AE8B766561658BD4
S11330205AB4B3938069696E8B60ABB294775F6670
S113303063865FA99C8F7E696F6D87659CA194846C
S11330406B716E827285B2927C67696F7D846FB298
S11330509B7C6661686E8062B0A28771696F6B89C0
S11330605EA3AC88726A6D6B8A5E8FAF8A756A6C78
S11330706D876B8FBC9B8273746C836680B3977F00
S11330806B6C687D5F83BB9479686D677E678FBC6A
S1133090967E6A70677D6094B4957D70727585675D
S11330A098AD917269676C7B5E9CAC8D7067646946
S11330B07E609EB292766763667F59A0B894776209
S11330C062688163A1C1A182756A6C7C7584C19BAD
S11330D07E6D59626D7E73B59489796765678C6A74
S11330E0AA9F8C83666967926E98B3917B626569C7
S11330F08B728BBE8E756060627F7882AE8B7965D1
S113310066698073889A847C71747D8178879184E0
S1133110817E7A7C807F8B8D83837D807F82858393
S1133120818083807C757D827C848182817A727BBC
S11331307E797D8682847A747C7B798487848175A8
S113314079817C80858384817A79807984887F8879
S11331507E737E7C79898683897C767E787986877E
S113316087857A767C707D888989827E7A78727E7A
S11331708588837B7F8179777F86857D7B867E7852
S11331807D7D86857F7F8978787D7F84847A81843C
S1133190757C817F8885767E83797E7E8083837942
S11331A07D7D7C7C8082817D80807B7D80827F822E
S11331B07C807B80817D7C7B7C81888183807D7821
S11331C07C7D838281847F827A7A7A857D7F8584FF
S11331D07F7C797B837F8186838176757F7A7F8903
S11331E086848176757C797F888889847178747601
S11331F08B8B858D7A6C7672809385848B757277D0
S113320072809081888A70777C747D8E878A8672BA
S1133210727B70838C8A86807D767A76838A8A83B1
S11332208577747C777D838489847684837C7481B8
S11332308987767384867E728088857A7E85887C89
S1133240737E82837979828579787F7E867D7E8399
S11332508C74767E7C8B7E7A848477717586938376
S113326079858478737A87937D7E7E7B796F7A8D76
S11332708D838E767D78737E8B877E8475817A7A52
S11332808587847C7D7684817D808081797C77804C
S1133290867D807C83787B7E7A84847F7F867C8233
S11332A07778897A77848A86836F768A7D74868D27
S11332B0867B6C78857E7789938C816C7684837821
S11332C0858E87776D76887E7585947D7E707A8D00
S11332D07D7C81858C446FAD4DBFB5704F66876D25
S11332E0B0BF957E2A346F706ED8A5936B2B658F13
S11332F068CADBA26B4841928E9BE4B474443842A2
S11333007947ADB28650483F6F8267DBC69C6256F0
S11333105A848077D7B899666560858C77DBB280EC
S11333205953556E8465D8AB8A5C4B4C5A7357C05D
S1133330AA8D5B545F7D8E7DB5CC956C5E62728E7A
S113334066AABE8266505661835BA9C38D7C5A5DB2
S11333506D8F5A9DAE76694666598B609AC79E9367
S1133360707278916BBAB9A08F79807C9469BCA390
S11333708D765657566A56A8947660524B5A5665BF
S1133380BBA28D7570768F79A0D1A48367606481A8
S11333905D97B995765C585A7B57A8B7967C615C63
S11333A05C7E61BDB38F725C555C8A66B6B18B730B
S11333B06C6C779976BDC3A27969686A8161A7AAA2
S11333C08C6B5D5F607C579CA8946F646D6E7E57B8
S11333D0A8A490746F757D8F72BAA8927061606BA7
S11333E06B66A5978169655E71597FAA9583726E34
S11333F06A8157A3B09C816D68676F60B9A29579A3
S11334006C6C80788AC6AB988275687B5797A99252
S11334107B6D69617352A19C886E706C697961B22D
S1133420A083636B6F747F75BEAA9278767374728F
S11334306EA892775D62617B7076AF90726066650C
S1133440847688B695796A6E6B8A6B89AB917A6E4D
S11334506B6D8F6AA2C49F8A7A70748F61A5AA8DDE
S11334607466616E7366AB9E7D66616181648AADCC
S11334709D81645D607C5EB0A6977D706E827E8166
S1133480B7978161595C79618BAA8C77615A6073B3
S113349062B5B29378635F726C83C3A688645A631F
S11334A07B619CC19E897173798D6BA9B79A7F6189
S11334B064677B5CAAAF91715D5F63765CB3AC8D2E
S11334C06E666A716E6EB1A08266666D8A7097C907
S11334D0A68268646073519BA08A7262626A6961A1
S11334E0A99A8C746B687D5B89B89D8D76676175CC
S11334F051B0AA9A8473707C6C8ECCA98D786D6659
S11335007658A8AD8E726A656F6173B9987A646CE7
S113351069805B9FB48D6D5E686F7660B5A98E76A9
S1133520717B8D6E82B58D6F565E6A875A98A681BF
S1133530665C61708661B5AC846A676D82866AB3C5
S1133540A17F66656A82827DC0AC907B74738A7247
S113355081B4907F69656B835D96AB8C786964698F
S1133560765EB6A48A766E67725579B48C7D707176
S1133570758563BEB78E756863725F6CB08E736554
S1133580666377509EA98C7A6C697E6E71BF9F8545
S1133590736A647C5598BA99867A7A7A816FC2ABD9
S11335A08B756D6B79627BB5917D6B6F6F82539573
S11335B0AA827A6873748556A9A07B6F6368757C48
S11335C063B9A48A807779877070AD856F69616605
S11335D0835C82A9876F696570895DAEA48A706F08
S11335E070817571B791826B73799069AABF957E6A
S11335F06F727A7074B3997C68676B7D59A3AC8BD6
S1133600716967736C76BD9A836B60617A559EAC01
S11336108B76656B7C7F7BC8AD896B585C765694E2
S1133620AB8E735B5464755EB1A88E766463796DFA
S113363080C1A48170635C7E669BC3A78678756B2A
S11336408766B3B3916D6C66646F65B6A48F6D6C59
S113365069725C86B7997F70676E7F53A0A88D6E80
S11336606563746D66BBA6967B7573865785AA9051
S1133670766561686A58A79C876D64697C599DACBE
S113368096816F6D766B6EAE9A897E76708C5EAE27
S1133690B099807D70747066B29A8B7271677B5535
S11336A08EAE987D706D6A7C5BA6A5907569627814
S11336B05874A7947E6A74758F63A6B398826767FB
S11336C06A73549E9786735E60726865AC998F7A4C
S11336D06C6D80618EAD948374646B8962B0B09CB0
S11336E08478757B7875AF9E836E6F6879609AA2D3
S11336F091766E6D747475AD98856D6D6D7D58A100
S1133700988872656475647EB994947474758660DF
S1133710AFA17F6F585B745E7CB28D7C615A6D7D06
S11337205FABAA917A6766806F76B39E8A7068737E
S11337309467B4B49A816863708369B49E86725C3A
S11337405D827180BC99886E5E628C6494B5987950
S11337505F585E8058AAA58F6F5F617C847ABEA78C
S11337608A6A5E5E7D6088AC90725F57647B5FB2EC
S1133770A08B6D6763816897BD9A7F64666E806F66
S1133780C4AF92776A6C87649FB6947C62606B79ED
S113379061BAA28C745D61806398BA92846760692F
S11337A07E66AEA280715B55775A93B69A87786825
S11337B0698365B1AB8D706254606A67AF9E866F32
S11337C06358726781BD9E8A7267617F6199BB9FEE
S11337D08B746B698968ABBA9C846D5D677460B1E6
S11337E0A68D7D695E75677FB7A0887C6A647A540C
S11337F0A4A7917F6B606D5969AF9486796B6C82D5
S113380059A6AE957C7668785C70AA91786A6C62E9
S1133810774EA69F85776E6E7E6480B798857772A3
S11338206D8662ABAF92807C6E816D7FB2927F6E4B
S11338307068845EA2A78C736B71708069BBA1846D
S113384070696D7F697CB4896F5E5D69865CA4B4C0
S113385089716D677A8869B7AB7965615B7A657CD4
S1133860B6966E615E678564A6B28A71656D7A8369
S11338707CADA0847A71778B7B90A38C7C747174FB
S11338807F778D9282777871797F869193837C7B21
S1133890727B7E8B8D897B78726771768285857D5C
S11338A07C757780848D89837E7B7377777F837C37
S11338B07675757076777E837C7F7C7B7E7F838E46
S11338C08C858785828282849185868284857F7CAB
S11338D08387787D7D817E787C89857F8080867CE6
S11338E079878C85797F80817271817D726E767D16
S11338F07D738292887B7981817A79868E7E7173D9
S11339007A7771798683777074807978878B8384EA
S113391079808F83808D8C838678828F7E838F8657
S11339207B7A7283827B7C89827B787A8A858282A5
S11339308B817E728283818581877D6F6D7B6F7AB7
S11339408382827A767D8376848782817C7A817D84
S11339506C817C7B7A76797D726D837C817F7F89B3
S1133960857583948688828590827988897E888209
S1133970838D757B8483777D758484718489817C50
S113398080808D857684837B7C838785786B7F704C
S11339906E78808C89787483787C79838881747854
S11339A086767675847D7D77777C727778867F805E
S11339B07E848682828C8F85878885807F7F8787B7
S11339C08887857E74777A838586837F7A75798301
S11339D088868884867D76807B818385807C7275E9
S11339E07879827E7C7A777D7C7D82837C7D818000
S11339F07B827B7C80787A7774767E737980817C15
S1133A007A75848A768B8B8D877F7E918477958374
S1133A1087887D888F777991818882778383717D88
S1133A20897C847F74877B6E7C8071817E7C866ECA
S1133A3068777B72838080886E75857A7A8B7D89BE
S1133A408197549E6444DBB3442885A99BA1B69D09
S1133A507E975A562733677EA8E6C1A890777D845F
S1133A6083B29A7B634E49654A738D6A5A4B4453B9
S1133A706C679B9EA093959AA4B8ABCEC6B09E915A
S1133A80898E988090916D5E4B413C3F4538554FEF
S1133A904942494D60726F81A29797979B9FA6B147
S1133AA0A8BAD3BEB7B7ADACA7AC9F9AA594857698
S1133AB06D635E5E554E615A463F4241464D5955CF
S1133AC06E736C6262696D767F7D849B9590959B25
S1133AD09EA2A5A99CB1B0A89EA39C98999A948FE4
S1133AE0A193897F7371746E726B707D6D665E5D78
S1133AF06062666F656F7B736C6E6872767A7B7AD0
S1133B00818F847E807D7D7D8484847B91978A826D
S1133B107E7E858889948F8A9A8984817D7C7F873B
S1133B2085847F7C90857A78757275747D808173C5
S1133B308D877B747071777B84818681858C83808B
S1133B407775767E7D7F80877B908D857C7470769B
S1133B508081858C7A7E88817A76737B7B797B8081
S1133B6082708F8E847A6E7175777F878C8F778958
S1133B70867976777F7D817C7C7D8274929B8D7B38
S1133B8074737378808A8E908177887B7A7979814F
S1133B908279797A7E8586889C8779716B70768341
S1133BA08B8A877C79718D848384827C75777E810E
S1133BB0898B8B827F8477736D7A83857D77767921
S1133BC0738A829D947C6E69696F848E95897E77F1
S1133BD07979918C8879726F6F7581818A8B8977F5
S1133BE07D89807971787A7E7F7E7F8383898291D3
S1133BF08E7E726F72727E878A87817E8A7B7F94C3
S1133C008B7D6D666B817E858B938A7F756C8E88C8
S1133C10837C7C7A726E858185958F8688668181A6
S1133C2076777B767B7E797C84888F8782717F83AD
S1133C307775787F807B7B7E84828B8E8D81718586
S1133C407F756D787A7F807B82888B85888B777C83
S1133C50877C757370727A7F817C8B8D8D83826E85
S1133C609081746E6C747583878188898985848159
S1133C707F8F7A716D707380868E8280868882874A
S1133C807F8398786B6970727A879188868184843F
S1133C907F8077968075686E6F7880918E83837F3E
S1133CA08583857887977B6D6367787A8F908C8519
S1133CB086828585806F7C8A83726D7A757D858224
S1133CC08086878A8D81816A74947A6D7179787B14
S1133CD0828087898C8984828A6087957C756567F0
S1133CE07977858C8C918E85877E7F5E83968270B2
S1133CF064707A767F858F958B87877F7F668390C4
S1133D007C6C676F757B828B919189838580836CD2
S1133D10839E7F6E61667279869291908B85808591
S1133D20758A638B907762616E758A92928C8882B1
S1133D3082838387845D8B8E7666637680868689AC
S1133D40898889888D867E755D878978737374798F
S1133D5081828B8B89948B857F75745F8E887F6B52
S1133D606A6C797D88869294978B827D7A68689A4A
S1133D707F77686B6C7A868A9390938E847E7E813B
S1133D80607F947F6C5B65747F8C8F94998B85893D
S1133D90807B875E7C927663646A767D8B93929453
S1133DA08A8D8A7E7F7E69629E8774676B74757E56
S1133DB0929399958D8D84766D804F87987C6A64F3
S1133DC0646C8191969B9593887C7A797D6A61A9CC
S1133DD0866F595F747F8C9298978E8984868074DD
S1133DE06D5D9C8878626B7377868E95968C8F8ACE
S1133DF07D7A6C72559E9374666164708390949F0F
S1133E009A9284807E75804C99A079595A676D8303
S1133E10909A969A938C847C7C805E66A4826C577C
S1133E2059758385959596918B8887816E86576F92
S1133E309A76686A6C767A839190949C9D8A80774E
S1133E406D894E82A27F675F5F6F7E849AA2A2967D
S1133E508A857C6F6B834EA39474615E5B728994D4
S1133E609B9A969280817F75815E77A383615A5F66
S1133E70698490999898908C847E7F74755A9987F8
S1133E807C5D5D6C808B9396938C8A8488817B7A2D
S1133E905E68A877696066707A9191978E8E948D2A
S1133EA0867F7B824B6CA47D6F61696F7D908B955F
S1133EB0A094918F7F79737D5263AC89735A616743
S1133EC0778B9095A49B8E877D7574727159A58F9D
S1133ED0745F5E67768C9591A09692867A7C827BDD
S1133EE072569F9471555C6E7F8C948D9F918889D6
S1133EF084807582596F9F7E6B5C606A8491949212
S1133F0090988B868187728343879C7D645C6D74F3
S1133F10838A919597938B967D756F794693968452
S1133F20705E67717F87979C9D95888176756E7B9F
S1133F30567BA9846C575D6F89939C9C978E858270
S1133F40817D78757749A2886F636A6D798B9293C6
S1133F50928F959388817A6F7742909A7D61666A91
S1133F60777E8793969C8F968A7F7A6C75529A8D0A
S1133F707563626873828F95909E9591868077733E
S1133F806856A5907B5D5B6C727C8DA19A9F8F8F28
S1133F9085746F816B5DA8877558536C7C8B969D77
S1133FA0949C8A80837E77787B4EA18A6E64576E58
S1133FB07F8B9A918D92918D86857C75734569ABC3
S1133FC08C74676B75767C93999999948E857768D0
S1133FD065734CA2A07E67645D6B85949B9B9D92E8
S1133FE0887F787673834F8FA3735B54667B839942
S1133FF09499958C8D8C827A7B84477A9E746460C4
S113400066767D909393959692948276717D4779A6
S1134010A37D6E60626A7D879196A29D928A867660
S11340206B745F68B081705E5F66748C9B9CA096B5
S1134030968E8075736E80419E97795C55687A89F7
S11340409495A09B8F8B8A82736B766651AB876F36
S11340505C616C7F8B8F9E9E9B8D8F897671677C54
S11340603F9C967A685F647486909A969E96928C2A
S11340707C716C754F7EAB816F58616C7D899A9EA3
S11340809A9A928C77756D864389AA7D62525F6E87
S1134090829197A69C91888B7A7373806662A781BC
S11340A070555B6D849293979C96888384827D6C13
S11340B078469997775E5F6C737F909A999D9A8BF7
S11340C08D7F73706E6955B48A705F616577879B65
S11340D0A3A495928F81717072814884AA836254DB
S11340E0616D7C92A2A399928C8B7F75717C5F5CCD
S11340F0A78473505A6D7699999B9F9B8789838077
S113410075725C59A9836D62656A758C999B9A93E3
S113411095938773736C6459A9907662586A758B0A
S1134120979C9E958B908377756C7B47A19978615A
S11341305966738697959E9E8C89817D7074796685
S11341405CA6856C60646C7E8F9A9B908B90898250
S113415082806D7B4280A1816B68656A7A8997A1B0
S11341609A9D96877A7A6E706954AE8F735F5B6698
S1134170798896A59E98918C7F7779747355A28AD5
S11341806E5D5866768C99A19B989185827A797A2E
S1134190635EA5836D5D58687B83979F99918F8833
S11341A087817B717A409A947C5D5C607483959777
S11341B09F9F9191887F7772776C5D9A82705C651E
S11341C071829096969594948984817B6D6F6477BF
S11341D0877B7377777B848A878E86888E887B74C7
S11341E07A7873747B877B75777C7E817F838D81FE
S11341F07C80817E7A80807E787E7A7D7F788185DE
S1134200898584758082817F8189837D727D7E85A5
S113421085857D867D767B8089887F8183797379A6
S11342207F83847F7D7D7676858787847C7D827697
S1134230777F7E817D7E817F78767F81858681848C
S113424080797A827E7D83818179787C817E7E8685
S113425086877C7C7E827F83877E7E79777A7B806B
S11342608987837D80827B817D847D78797F828349
S11342707F827F7978787F83828382857E777D7F52
S11342807D7E7F80867D747F83857C7B81877B7B3D
S11342908287867E7679857F827F7D7D7B7D817D29
S11342A07B8180838582807B7D7A7D808286797B19
S11342B07B7B847E7A7E83838A7D828A807A7F7BFD
S11342C0777E777D81877D83757F848087868185EE
S11342D07A7783757B7F807E7F7B817E7C8A8581F4
S11342E076837B837F808481797E817D7B767F7CEE
S11342F0787D8A848289868774727D847A858777BB
S1134300797070807F91908C837E7A747A7A8781B9
S113431083857A746C75828F838B8D7B766B7D8DB0
S113432087847B7B797D747C8B817E82817D7A74AA
S1134330858680877B7E7D85788A8386836A688587
S1134340777F918986767B7E86747C86857F85845B
S1134350807B6976827E8680807F7D8486848C776C
S1134360817C7F7A82717983847B7A8281827B8566
S113437087847C7D7984847F818278737678847C59
S1134380868C86797E808780818583796E71788535
S1134390898284817E7B727C8D8481827E787C7824
S11343A08E8D80757F6B70747E8E958F82826E7514
S11343B07E7C8B947E7D776E73777D8B8B88827EFB
S11343C0737B78838981858F7872787D827C798606
S11343D081797B847D827E869081797F78757D84E6
S11343E08587767678827B8788857D6F75848584DA
S11343F08888867771797C787C8387847771818CCF
S11344008B89888380756D807C7B7A767C888186B5
S11344108B7E7C82827B807C80827D7E8673737BB4
S1134420787E88888587777587887F82827B7E7986
S11344307484837F80737F877B778186857E7F8B7F
S1134440887F70767E837C7B79857C767D8B837D8B
S1134450868687807B787B777A8485807C717C896B
S113446089877C797B787C8D89827773777F7D845B
S11344708E867F7A75757B7982908C807E7C787845
S11344807B858D8677797A747E808686807E7D7D35
S1134490887D7F797E7E82808183747D7C8280802A
S11344A07E84837E81867C73807D82877F7D7D741C
S11344B0808A807F7A797A858289887B78827881FC
S11344C07A7F83877D737E7B7D7E888D877A7F7BF1
S11344D0777E7A828C817D7A72768185848C877EE0
S11344E07B787A7E797E867B868180797B778785E7
S11344F07E8382767179808C888385817C797D7CCA
S11345007A7A868378847E7C7B828485837A7C7DB8
S1134510807E817E787E7A7F7B8582807F867F7DA8
S11345207D7E80817F8C887B6E7881817D8189828C
S1134530767D82827F7B80877C7A797E807D777DA1
S11345408683837E807F7A74818987867B7E7E7D65
S11345507A7C80827F7B898876747B84868A848354
S11345607E71727A807E8389867C7E7B7778808276
S11345707E858576788D98947E7A79706C6A7B7B5B
S11345807D6F70747C7D909294A192838D7B67740F
S113459085A5BEA28472526366737E6F57595456C2
S11345A0857A878B877B7E848C908A929D96828580
S11345B08084928E98917A7E857F81807E717D6DD4
S11345C07A8386807C796D635F77627D8A89838E46
S11345D080838484898E918D837F7965707B7782D3
S11345E081776A726F7B7D7B888387978C777C6207
S11345F06C697277797F6D8D8891A693938F919171
S11346008A84928F9287959997927D827673726647
S11346106D655C5F6A776B6C6266667478868F8E94
S11346208A8F98918F8D8C8E897D777379777C773B
S1134630817B7966757C8284857F766977838A83BA
S11346408B807A6D73848E8D7E8891858A837D8D2F
S11346508C8A96999A89817F827D7D71747B70653D
S11346606E6D6A6F6F7A75838681727B767C8E84B9
S1134670838A8A95958C9091867D7872837C7172F9
S11346807176827B6B6765747F8081857670767DB9
S11346908B898677737B82898C8C83898585858DCC
S11346A09189939898928D7F7A847E7B81777670B6
S11346B06D6F6E6776727473848980746D767A8098
S11346C08284878E8F8F939589887577837A747C9B
S11346D07C77787775706F6E77757F81827970706B
S11346E0858888867676797B8D938F88817E898686
S11346F08992948B8E868B917F80818A837D7F774C
S113470075726D797A716867727383888879716F4D
S11347107F818184878B8B8B8492887F87857D8141
S11347207E6D72718182827570766D706B7B857D12
S1134730697681898C817F87817688898F8A7C7E5E
S11347407E7C9297918F8A91918677859088817DDE
S113475077766F69707C7A73706B787C7F847C79F0
S11347607B78797B7C868787878A8E8A867E868912
S113477081837E707A78797E7B75726A62707E7EC0
S1134780847E76807781868484837776878A898815
S1134790828988868D928D8D8E8F94867F8A847887
S11347A0727579797A737D78726E7373797B808789
S11347B07E717576777F84889380848B8C887E82E3
S11347C0878A7D7F8577767571797C6F76796E714E
S11347D07B777D79787B827F837E7B878082808CE8
S11347E08F8C7C7D8B92888B95939282838984892C
S11347F0807E807F7B796F6E7879757371747A7B34
S11348007B7F7B7B8379767C83807B7D8A918B85A0
S11348108689837C7B8781787D867E706D777870CE
S11348206D75777F7A707C8B7D7D8A85817B737DC6
S11348308780888E8284878C98928B8C93898083DE
S113484082867D7A838181717676776E767D7A74BD
S11348507E7C7E8375747C7476808785857C7F8B73
S11348608685848C8985797E7E727B75747985735F
S113487074796E747C7A798374777980867F7F8388
S1134880807688908C96867F939485878E93918684
S11348907E837F79737F8B907873766F6E71787D6A
S11348A079727B7B7C757D7D7B807781867D777F4C
S11348B08B959188827B757284828583867B7D70DB
S11348C077797B737273747274728089878984793F
S11348D073767E7F9391898980858A8B8892928E64
S11348E0867E87878583888384766A79817D7D7DCA
S11348F0767770707476847E7D79796A737F82832B
S11349008A7A7D7C6D7583878D837E787D787A82C3
S11349108F96887876776D827C8496858088777781
S1134920808F9F8955BD14B7BE7A35349AB6EABCD8
S11349309E40343B7A76503A40819EC0D1C9CB9C8C
S11349409C88886759573F8675543D4E555C6D74F5
S1134950818B898381929A91998DB9C0AE9A9E9FD9
S11349609C9AA4ACA698927F665C4D3D30193C4657
S113497038363542536372848B93989C9CA0A4ABC5
S1134980A8A6A6C9B9B3A5A4A9B2B4B1B1A59B936D
S1134990877A73665955454D53473C383C434A53CF
S11349A05D61676A6A6F7675777179749D99938C86
S11349B08E949CA7B0B2AEADA7A4A29E9F959187FA
S11349C0A5998B7B7979787B80817C76716C69671A
S11349D066616055796F645C61656E767D7E808109
S11349E07F7F7B7E817D807184897E77787D8388DB
S11349F08C949694908D8C8B8B84857A8299877B0A
S1134A007574777F85888A8885827C757776777ECA
S1134A10687D877C766F747B84888D8C8989868297
S1134A2082807F7D786B87837E7271787D818384B9
S1134A308585828281807F797A66818782767476A1
S1134A407A7B7F8488898482837F797E827782855A
S1134A507E777577797C7A80838384858585837C6A
S1134A60816B8691847B757B7E8186898C85828728
S1134A70877F7B777C747092857C7270767D838669
S1134A808A898282837C7B7E7B796F838B847C7929
S1134A907D83858A87847F81817D80807A7878612F
S1134AA084888078747A7A828485838686828082F8
S1134AB07B7479697D9487787175797A888E878A11
S1134AC087857E7C80818675768E80756D757A7E0D
S1134AD088898A837E7E7E7F86828576738F817ABB
S1134AE06F737B818686898A80868684827E7374CE
S1134AF06890877E74716F78808A90958E84807BAD
S1134B007783787D697C8C82716A7372808C9790CC
S1134B1087817D858184817C7A64878B7B747175C0
S1134B207E8388868783838687867F747A6D68957B
S1134B30837F7470717C828988878D8C8A8778756D
S1134B40787F648D8D7D726A757880858B8285828D
S1134B508685818579836A7D88796F6A727C828F84
S1134B6090868687868B8C867B7A667E9483796A28
S1134B7070787B878A858A8A8683867B787A7F5C4D
S1134B80928B7B716D797977868D92948984837FFA
S1134B9072727F727097857D6B6873808E91908B33
S1134BA08889767C7D7B797C587D9086756C74775A
S1134BB081858B8A8D8F8A87857F767A6F659A8CBB
S1134BC079656970798992998E8A8A847F7E7B78E7
S1134BD07C5B978E7E62646D7A848E9290878688E1
S1134BE083807C797A6A8C8975666A71797F83910E
S1134BF08C88868A87867E747F5B8E96856F676CC9
S1134C0074878A9391908D8A83817C72717461A177
S1134C108A745F5D6880939296948C8F877F827C80
S1134C206D7663749C807A6B6E79848692908B9493
S1134C309287817C6C696E589E907D6163647484F4
S1134C40949895988F888077746B7B529897775E49
S1134C505E647D8E94989294928B85827D717A5253
S1134C6092997A635C6A77838D979897928A888001
S1134C70776C79587B9D7F6D636A777F8B8C939675
S1134C80928E848379726D7C5B9D93755D5B687A8B
S1134C908596A09B978E8B787A7172786C59A787CA
S1134CA0705B617481919299949589878C827A6CF6
S1134CB0744E85A080726262738193949D9A968AE1
S1134CC0867E78736E6564A4898566666F7F8F8F30
S1134CD09D938D87827579726C5E5CAC856A565D36
S1134CE0677F8E959B9F98918980807572744EAB77
S1134CF090795D566B798B949E9D98888B837E7892
S1134D006C814E7EA57E6A57626F838D97999A98BF
S1134D1090857F7B776E7F4D939B7765636C7A85F7
S1134D208A94979B988A837A7B706F7155A4906953
S1134D305D5A63788C979DA1968E858474756C7F7B
S1134D403F909E7F605D657589939B9F9B98928A37
S1134D50817A6C744E87927E7261606F84969F9E96
S1134D609A938A877D776E6F4E829F87755C636D99
S1134D7080929BA0978E86847B76736D644CAB8BFC
S1134D80735858667B8D9C9FA0978E89847C716D27
S1134D907B4B80AC7D6C5C677386919B9A9D9487FA
S1134DA0877F7F7469813D91977565646479848E8A
S1134DB095999C999289837A6D74695DA98E7065C1
S1134DC060747D8A979F9A968C877D7A726D7443FE
S1134DD0A68C6B5D5C6672859895958D8E87857FB4
S1134DE0776E7E3D9D9F756B646F7985959C9E98CB
S1134DF090928D827B6F6F517392827C6365747F16
S1134E008A97989B8F9285847B7169704FA09E814D
S1134E1071626B7581909C94928E8D807C75656BAC
S1134E206E50AA8D745F5C68738394999A9292878A
S1134E307C7C7368834E83AA8171626A7B83959CB0
S1134E409E9692978D857A7571595AA5846B5C5F8D
S1134E506C7286949B9B9A978F837B726E6959B50B
S1134E609377605D707E8A989A989392887C78781C
S1134E706A723EA2946A5F565E787E8E989A969382
S1134E808C7D7C716979507DAE8470666C79898F74
S1134E90A0A1A599938A7D7A70657048938C7D6CE6
S1134EA06065797D8B989C96938E857E7867746710
S1134EB05FB0937F64686C7C849BA09A9790877A98
S1134EC0786D677441A38D6B59545E747E989B987A
S1134ED0949290857C7B6D84449A9E7A6563707B02
S1134EE08395A19F9C97988A7E78687B449698774F
S1134EF061585F737C8B9B9BA1948D817478697FCF
S1134F00507CA77D665A64707C8A9C999D95928B8F
S1134F107A7777717D439B977968606A75848D9CF5
S1134F20A09A998D8474736D726E4EAF8D775C58B0
S1134F3066788B9AA59D9990887C7A776D81488153
S1134F40A1816B596676808E9B97989595847F7E18
S1134F506E765B62AD8A705C6071778698989D947A
S1134F609088797D6E785D63B28D69595C6D7B81C3
S1134F70A2A39B948F867B7476786A53B4896F5A04
S1134F8054687F8B9CA0A0958F86827C776D833E2E
S1134F908CA97B6B55626C818F989DA098908A7BBD
S1134FA07673717249A79B765D56647987949C9D4C
S1134FB099948A81787870845170AB7F665A627153
S1134FC07F8F96989A9990867E7D74795B55B18986
S1134FD07353616A7C8897A296998A8D7E847579C9
S1134FE0615CB18A76505D607D899B9D9C968B90B7
S1134FF0847E736F6750AF9579545E60778598931C
S11350009B9C989085736E6977429AAA81645656E0
S11350106F7C9A98A09D958F8779767672734BA34F
S11350209B765C5C67778D929098949A93877C7852
S11350306E755963B68B745F606B78829597A69F83
S113504092897A74726E784DA5A1755E54617987E0
S113505097999B95938B7E71806C7E4C86A6786520
S11350605764788094959C959C8A9279777177425D
S113507092A0815F57646E808E98A2999C8B897AE6
S11350807969834E84B58365545C6D8289999D9852
S1135090918B8E817477767A4989B0505A847CAC2E
S11350A08C954C6186CC9C89343562818E83BA8D13
S11350B09B918B77895862B58D6D7572767F9CA4B0
S11350C09D998B806A564D3824BB7C62404C658127
S11350D0A4ACB9B8B9A89A857F764CC79178484DE5
S11350E05B7A879B9F9994A08B90778037AD8F5084
S11350F037364C5E808E949EAEA39496997E60AEB5
S1135100916947525D67778F978B948E8F878C4612
S1135110AD936861585E616B758C7F998D937F78D0
S113512067BB958266646D8598919EA4ACB4949394
S113513079B186815A4C505D6D77867B7F817E5D27
S113514069AA62543F4B5D778A9EB6B3AE94A4635A
S1135150BAA67C584C4B6278869194838395619D62
S1135160B274584F50647E848B928A85966D9DAD3F
S11351706E624F617079939CA3B19FA968BAB98696
S1135180584B505C6B78858A8E857D6CBB897353D4
S11351904E57637984928C9F8F7BC9A68B62515C36
S11351A0707983908E997782B88A6446424E5C7691
S11351B08A928B9664C49C8761565D69717D8E99D1
S11351C0A065BEAB8B6A5F6A7289959EA59A76BC10
S11351D0A08B735D62606876778B7771B28B725740
S11351E05A5E6A767F7F91718EC08E7B68786F80FD
S11351F088828DA26AA9AE8468594C5E6E6F7B89E1
S1135200836EC09D78595859677E8A8D9D62A2B17C
S11352108B7D5F6267718689A582B6D09880636250
S1135220707C8291976CA9A3805A525E586C737EED
S1135230826BC5A7886459546B6E7F9E6BB5BD990C
S11352407E686F73747E967285BA8E68585C5D61F1
S11352506B857179C5A07E5F5D59677F8E8681C23B
S11352609A7B65666979848A9A6FC9B6937C6870FB
S11352707281889C64B9A58A6C5B53657374896177
S1135280A4A97E615D636A69778E69B0B189746A25
S11352906F7187879277CEA481656061656C896739
S11352A08BBB8C6F58515E67818164C3A58A786516
S11352B05E646F8E65C0C1927566687780A17CACB0
S11352C0CA9D7F6B636873857585B5927B5A585FF9
S11352D06C807471BC957B6765616573846CC5A6CD
S11352E08774686E7E848E74BFA57F675B586A730B
S11352F08D68ACA67A65525A6977935BA6AF8971BB
S113530065636E6E8A69ABCF9C7B6662777DA0769F
S1135310ADCD9C826B6565738B64B1AC8E705F6040
S113532060668058A8AA806B68615A7B6C7FC1A0B4
S11353308668676871966BB7BF9E746465617C719B
S11353407ABD9778605659637E63B6AE816D5B5FB4
S11353506D82708AC196796370727E9364C0B59BC6
S11353607877787792678FC19B7B666C686E795982
S1135370B5A58664535F65826784BC978064586C66
S11353806F8D60B8B598786B6C6D837E7ABE9B7EAA
S1135390615C656B8D5EA0AB8469575A607F6487DE
S11353A0C0958169616A7B7A73C3A88A736C6B7CCC
S11353B08F72CBBB9C74696A6B846AB9AF916A5D66
S11353C05E657A54B3A68A6A5C5A687E56A9B08D23
S11353D07060676C8365ADC19C826F6A6D836696ED
S11353E0B0897164676F826081AF8B6F5A5F667832
S11353F06E77BB9880645D69797B70C8B0957A716B
S1135400727D8E75C5AD9075656B6B8A66ADB9920C
S113541073605A67805B90B18C715A5C677E62845A
S1135420BF967E695E6C836E8CC39F866C676D814C
S11354306587B19376656265815C92AB8C726962B3
S1135440667C569AAC8F706C676B8262BBB0947842
S113545078737F886FC1AF9478726A6E756AC2A7D9
S1135460916F5C5A747963B49B81686561757664E5
S1135470B49B796A6C6F727B6FC9AA8B746B686E0C
S1135480806ABAA57B645765708257ACA38569604E
S113549063647A57BCAA916D69686D8461C3AB8DEE
S11354A074787778856ECCB2946F6F6B70716AC3C1
S11354B0A5896861616F6385C0998065605F7E5D61
S11354C09BB78C6D5C6B6A7B64B1B392706B7278C2
S11354D0706FB5A086675B617D6A91B495725E5EFC
S11354E05F7555A4AF89766B676D7E5BB8AF9478B2
S11354F06769758672C5B2967E6B747B8263B8A148
S113550087716D686C7662B5A5846C636873706826
S1135510C2A67E6B5C5E71786DBC9B83746F707A7F
S11355206F76C0988077625F786086BB936F67669A
S1135530638150A3AB8765656A797966B5A487767C
S11355406968846A93C1A288777375896DB4A984E4
S1135550726B67797478BA907C64696A846089B282
S1135560907D6B67668055A1B1886A5F656F886DB1
S1135570BAA58A7067687B7965B29B7E6C6465782E
S11355806D74B5947C666064766A7ABE9E8864663F
S11355906B7B5C94BF9B8971797A8D65A8C99B8567
S11355A06A68637261ADA888725F656E7B72BF9929
S11355B07E6C62707E6183AD8F7E676069825DAA56
S11355C0B6997D635B6B7472B99480666B6D82610E
S11355D096AE8575635F6D6A5AB4A087756E6D7FEC
S11355E05E93B5907E7372728666C7B58C736E7166
S11355F0847776BF937E71696A815785C098786A8B
S11356006062815FA4BA9172635B68865CAEAC8BA6
S11356106C676B717C64B4A0866D6660707669B6E5
S11356209F866B63627A5D84BB8D726469728571D7
S11356309EA4867969707E8284A69E8E8074768903
S11356407C979D877C7469747C7E938B7D7278785B
S113565087797F7B7D8480807F7C787D77797F8468
S11356607E7F87868A7E7576737D807E7B7F7C785D
S1135670777A797F7F7E7B7F7A7A747B827E7E7C69
S11356807E8183797D8587878B837D898B919585C1
S11356907A7F7F82867E8182858584777B7B797B16
S11356A08284857E6E787B82828481807C79797421
S11356B07B8A877E7F847F81726F778984787A770B
S11356C0767776828F857C6E70797E807F777E8018
S11356D083837B8282817A818B89867F7C878A8D92
S11356E0888784818585807B797983857D828679A5
S11356F0777F838A8078807A7A8683837C73727AD0
S11357007D7A828780837C82807A747A838C7D70B0
S11357107D72706E7A858D7E77707C827A7B7B81D8
S11357207D80817F837D7A7F868D8A837F888C8943
S113573088827B837F868D847973767F828A8D8D40
S1135740877976777A80827E7F84837B7B7E717A89
S11357508381847878847F8188828F6D6B6E7B7E71
S11357607A777B838876787D72716C7E978C7E7570
S113577075767F858A8D807378848789818F8C7E06
S1135780898D887C7780827A748283877E7E909BE1
S11357907A70807D7E7A8289827A75777C8782842A
S11357A0848872707E78827F828F8476766B788527
S11357B07A758687727272797E7477857872777F4C
S11357C08D7E7A79857D857D7B817F87947C7B8CBA
S11357D08B80939D9F8976767B838C8B818481815A
S11357E0897D6C6E837B808087816E696F7C7F731B
S11357F07E817E73787D767F848083827B797B82D1
S1135800757D817E99578F7645DAAC402A91A49BA9
S1135810A3B397729D725D27396D6BA4DCC3B1820B
S11358207D927D8EB18E7A5939594965887E605151
S11358304E4E595E98908F888E98AB99C6C5BDB16F
S1135840A199A38A9BB19B83685C5A5F405F5444CF
S1135850362E2F3C414A716E7471787E8D84A4C0BB
S1135860B5ADA4ABA9B8A7C6CBBAACA6A09EA28777
S11358709D948372655F5E5B4C615849423D424E24
S11358804C526D645F595E677266818E807C7D8444
S1135890919A94B4B2A9A29B9FA19EA9B9AEA59DC9
S11358A09891928499968377716B6D6A697B71671D
S11358B0615C5E665C72796F68676769726C827C32
S11358C07B77757986807F9186807D7E7B837B8ADA
S11358D0999286848883897A909E8C85848686852D
S11358E0758E8D837B797C757D718B877E7B767AD3
S11358F0797D7390848176797B767B708588877DCA
S11359007E7F8080758C8781787A757C7A7C8E899D
S1135910847E7A767C72838E847F7F77737C7187B2
S1135920887E777875787E79928C847D7B76877D86
S1135930848F84827C7373837586877F7778787C81
S113594083789491837E7D777E8276928E8275753C
S113595077807A788F837F7D7A77837975938A8449
S113596080797882757E9488837D78767A7B7B8E45
S11359708685817A7B7A78788F8B877F79786F7444
S113598070948F7B76777F7A7678978579787B7732
S11359907B76809689807E7F788170878E817F79FF
S11359A08079837085858478727A7D82798985800F
S11359B07A7B7B7B7D7D928D857B79787C7B8595DD
S11359C0887D797B72777385928D827A7B767C6B06
S11359D08A988E807D7279816C86978879777774BE
S11359E0856F8299887D787D747E708B8E858076B4
S11359F07475836E8496897A797D757A6A82978CB8
S1135A007D79797B7B6F8E9A8C817C79767D6C85B0
S1135A10998E7E72727478768F9585726C737582A6
S1135A20769795837678797A7F7096917F797A796B
S1135A307674788D8180837973817B819886827E68
S1135A407D777B6B86978C827A766E777891998E48
S1135A5081726E6C7B79859C8A7F786E67817A8689
S1135A60A592877567697D7689A38B7C6B646F8645
S1135A7080819B8E7F6C787D848277978983727016
S1135A80757F8179A08A7C6F6E7080897798907910
S1135A90717372767F769A9785776D71737B71A82F
S1135AA0A1897A6C6C747F6D989889767070767F12
S1135AB078A4938277726E7A7775A3967F706D70EF
S1135AC082767F9F8E76716D768876809E8D8178C2
S1135AD06A6984728BA28978777573888086A989AC
S1135AE079666D75807A75A38C7D6E707A7C827010
S1135AF0A19185726F7476876D949B85716F7274B2
S1135B008C6E8CA0907B7574788269909B8A787572
S1135B1072747F6785A68E7D757A7A8569829B8A81
S1135B207A727074805E8A9F897C7A7A73826492B6
S1135B309E887B737C7A825F999B887B6F75788261
S1135B4060A09C897A70706F8368A39D86746E6D63
S1135B50717E6A979D82776E71788A6B93A68F7A2D
S1135B606A726F85688FA4887C6F6D778B6D8FB335
S1135B70927F6E6D6D786D72AD9283727068757C74
S1135B8068B3A081706E72737E64A89C846E697021
S1135B90758566A6B0927F70696A825E9EA48A73D8
S1135BA0656A6C8965A1A69380716D6D835BA0A7FE
S1135BB092806E64637E57A3AF8B7D6B6368875C52
S1135BC0B5A9847C6D656A7F56B7A2877C70676AC5
S1135BD0825FB4A989716B6F748A65B1A3826E64A4
S1135BE06B6E8264ACAA89726268748B6F96AB86A2
S1135BF068646770887881B1917E70726E7E7A77FE
S1135C00B29680716A677A7B71B29981737270758A
S1135C108467A7A18B78726C6E7956A39E927B6F72
S1135C206A6B7C589DA8977C726C738166A09D8E6C
S1135C30766D6F6D7B61AAA9927F7169717E60AF89
S1135C409A8D716663727A6FB7968F706A6476778D
S1135C506EBB9C906E6C61726D6ABDA686686B6645
S1135C6077796DBDAA8A6E676674755BACAD867014
S1135C706A6C747C629EBB90796B6970776E89C024
S1135C80947969626877767FBE9E7C6C6369767A64
S1135C9076B2A578646364798770ACAD816C64690D
S1135CA0758B6EACB08C7666646C7F60A9B18C7AAF
S1135CB06666728263B2A97F716A67697461B2A40D
S1135CC08B786A6F69765CAFA594796F6D6D7F652B
S1135CD0B6A29178676E678564ADA68B7769696BA8
S1135CE07C61A3A28C7C656467856698B292816EA0
