:100000000C9434000C9451000C9451000C94510049
:100010000C9451000C9451000C9451000C9451001C
:100020000C9451000C9451000C9451000C9451000C
:100030000C9451000C9498010C9451000C945100B4
:100040000C9451000C9451000C9451000C945100EC
:100050000C9451000C9451000C9451000C945100DC
:100060000C9451000C94510011241FBECFEFD8E026
:10007000DEBFCDBF11E0A0E0B1E0E0E1F4E002C0FE
:1000800005900D92A032B107D9F711E0A0E2B1E0DE
:1000900001C01D92A332B107E1F70E94CF010C9479
:1000A00006020C94000087E090E09093C5008093D6
:1000B000C400E1ECF0E08081886080838081806111
:1000C0008083808180688083E2ECF0E080818460BE
:1000D0008083579A0895982F8091C00085FFFCCFA8
:1000E0009093C60008958091C00085FFFCCF0895CD
:1000F0008091C00085FFFCCF80E28093C600089508
:100100008091C00085FFFCCF8CE28093C6000895EB
:100110008091C00085FFFCCF8AE08093C60080916B
:10012000C00085FFFCCF8DE08093C6000895982F16
:1001300006C08091C00085FFFCCF1092C600915090
:10014000C0F70895FC0107C08091C00085FFFCCF77
:1001500031969093C60090819923B1F708956F92DC
:100160007F928F929F92AF92BF92CF92DF92EF9247
:10017000FF920F931F93CF93DF935B016C01E12CF0
:100180008AECF82E8AE9082F8BE3182FC0E0D0E024
:100190008091C00085FFFCCFB501C601A801970181
:1001A0000E94E401205D2093C600C801B7012AE047
:1001B00030E040E050E00E94E401922E832E742E45
:1001C000652E2196CA30D10589F0B501C601A80176
:1001D00097010E94E4015B016C01292D382D472D08
:1001E000562DC901DA017C018D01D2CFDF91CF916B
:1001F0001F910F91FF90EF90DF90CF90BF90AF9045
:100200009F908F907F906F900895982F87B18F6007
:1002100087B9913069F092301CF4992361F0089508
:10022000923021F0933049F487E003C08BE001C0A5
:100230008DE088B908958EE088B908950E9405017F
:100240003C983D985298539854985598569857987A
:1002500086B1282F30E094E0369527959A95E1F7FE
:1002600021703070359922604A9924604B9928603A
:100270004C9920614D9920624E9920644F992068D5
:10028000C9010895EF92FF920F931F9383E00E949C
:100290001E017C010027F7FC0095102F102F0F2D59
:1002A000FE2CEE2482E00E941E01AA2797FDA09555
:1002B000BA2FE80EF91E0A1F1B1F102F0F2DFE2C40
:1002C000EE2481E00E941E01AA2797FDA095BA2F77
:1002D000E80EF91E0A1F1B1F102F0F2DFE2CEE24F7
:1002E00080E00E941E019C01442737FD4095542F59
:1002F0002E0D3F1D401F511FB901CA011F910F91C3
:10030000FF90EF900895E1E8F0E0808180618083C4
:10031000808185608083EFE6F0E08081816080836A
:1003200088E490E090938700809386007894089505
:100330001F920F920FB60F9211248F93229A2A9A2E
:100340002A9881E0809320011092220110922101CD
:100350008F910F900FBE0F901F901895219A299A98
:1003600084EF91E020E731E0F9013197F1F701974F
:10037000D9F7299884EF91E020E731E0F90131972E
:10038000F1F70197D9F708950E9488000E9488002C
:1003900080E091E00E94A2000E94880008950E94DF
:1003A00053000E9483010E94C40180912001882390
:1003B000E1F3299A0E9442010E94AF000E94880046
:1003C000109220012998F1CFA1E21A2EAA1BBB1B83
:1003D000FD010DC0AA1FBB1FEE1FFF1FA217B30711
:1003E000E407F50720F0A21BB30BE40BF50B661F27
:1003F000771F881F991F1A9469F7609570958095EB
:1004000090959B01AC01BD01CF010895F894FFCFF9
:1004100055534220436F756E746572202D20777797
:10042000772E535748617264656E2E636F6D0000BE
:00000001FF
